:100000000C945E000C9486000C9486000C94860080
:100010000C9486000C9486000C9486000C94B0031B
:100020000C9486000C9486000C9486000C94860038
:100030000C9486000C9486000C9486000C94860028
:100040000C9464040C9486000C9432040C940C04FC
:100050000C9486000C9486000C9486000C94860008
:100060000C9486000C948600000000080002010039
:100070000003040700000000000000000200000070
:1000800000250028002B0000000000240027002A83
:100090000004040404040404040202020202020331
:1000A000030303030301020408102040800102043B
:1000B00008102001020408102000AE0411241FBE05
:1000C000CFEFD8E0DEBFCDBF11E0A0E0B1E0EEE1C0
:1000D000FFE002C005900D92A832B107D9F721E0E8
:1000E000A8E2B1E001C01D92A93FB207E1F710E01C
:1000F000CEE5D0E004C02197FE010E945107CD3526
:10010000D107C9F70E940F050C948D070C940000CD
:1001100090E0FC01EB55FF4F24918F569F4FFC015F
:100120008491882399F090E0880F991FFC01E9578A
:10013000FF4FA591B491FC01E358FF4F8591949135
:100140008FB7F894EC91E22BEC938FBF0895AF92A8
:10015000BF92CF92DF92EF92FF920F931F93CF93B4
:10016000DF936C017B018B01040F151FEB015E0116
:10017000AE18BF08C017D10759F06991D601ED91AB
:10018000FC910190F081E02DC6010995892B79F74A
:10019000C501DF91CF911F910F91FF90EF90DF90FC
:1001A000CF90BF90AF900895FC01538D448D252FC3
:1001B00030E0842F90E0821B930B541710F0CF9601
:1001C000089501970895FC01918D828D981761F033
:1001D000A28DAE0FBF2FB11D5D968C91928D9F5F4A
:1001E0009F73928F90E008958FEF9FEF0895FC0129
:1001F000918D828D981731F0828DE80FF11D858DDC
:1002000090E008958FEF9FEF0895FC01918D228D6E
:10021000892F90E0805C9F4F821B91098F739927F3
:10022000089582E491E00E94050121E0892B09F400
:1002300020E0822F089580E090E0892B29F00E9431
:10024000110181110C9400000895FC01A48DA80FE8
:10025000B92FB11DA35ABF4F2C91848D90E0019608
:100260008F739927848FA689B7892C93A089B18928
:100270008C91837080648C93938D848D981306C0C9
:100280000288F389E02D80818F7D80830895EF922D
:10029000FF920F931F93CF93DF93EC0181E0888F40
:1002A0009B8D8C8D98131AC0E889F989808185FF10
:1002B00015C09FB7F894EE89FF896083E889F989B2
:1002C00080818370806480839FBF81E090E0DF91B4
:1002D000CF911F910F91FF90EF900895F62E0B8D07
:1002E00010E00F5F1F4F0F731127E02E8C8D8E11C2
:1002F0000CC00FB607FCFACFE889F989808185FF29
:10030000F5CFCE010E942501F1CFEB8DEC0FFD2F33
:10031000F11DE35AFF4FF0829FB7F8940B8FEA89E3
:10032000FB8980818062CFCFCF93DF93EC01888DF2
:100330008823B9F0AA89BB89E889F9898C9185FD60
:1003400003C0808186FD0DC00FB607FCF7CF8C91EE
:1003500085FFF2CF808185FFEDCFCE010E94250180
:10036000E9CFDF91CF91089590E0FC01E859FF4F6C
:100370002491FC01EB55FF4F3491FC01EF56FF4FE8
:10038000E491EE23C9F0222339F0233001F1A8F4DF
:10039000213019F1223029F1F0E0EE0FFF1FE35870
:1003A000FF4FA591B4918FB7F894EC91611126C0DD
:1003B00030953E233C938FBF08952730A9F0283015
:1003C000C9F0243049F7809180008F7D03C080916F
:1003D00080008F7780938000DFCF84B58F7784BDD6
:1003E000DBCF84B58F7DFBCF8091B0008F7780937A
:1003F000B000D2CF8091B0008F7DF9CF3E2BDACF05
:10040000CF93DF93EC018091E7019091E80102978F
:1004100049F4C130D10509F43BC06CF560E0209788
:1004200009F437C08091E7019091E801049749F4FD
:10043000C130D10509F45CC00CF037C0209709F435
:1004400042C08091E7019091E801059709F0E5C06D
:10045000CA30D10508F0E1C0FE01EF5CFD4F0C94FD
:10046000510790029C02AD02C302DE02E002E702E5
:10047000F30204030B03C230D105A9F060E0C330DE
:10048000D10581F68091EB010E94B40160E006C0C5
:1004900061E08091EB010E94B40161E08091ED0187
:1004A0000E94B401BFCF61E0EDCFC230D10539F178
:1004B000C330D10509F0C5CF61E08091EB010E9406
:1004C000B40160E022C061E08091EB010E94B401C0
:1004D00060E08091ED010E94B40161E08091EF0144
:1004E0000E94B40160E08091F1010E94B401A9CFA3
:1004F00060E08091EB010E94B40161E0EACF60E02E
:100500008091EB010E94B40161E08091ED010E94B5
:10051000B40160E08091EF010E94B40161E0E3CF9B
:1005200060E08091EB010E94B40161E08091ED01F7
:100530000E94B40161E00BC060E08091EB010E9479
:10054000B40161E08091ED010E94B40160E080910E
:10055000EF010E94B40160E010C060E08091EB0107
:100560000E94B40161E08091ED010E94B40160E05D
:100570008091EF010E94B40161E08091F1010E943D
:10058000B40161E015C060E08091EB010E94B4010C
:1005900061E08091ED010E94B40160E08091EF0183
:1005A0000E94B40161E08091F1010E94B40160E019
:1005B0008091F301DF91CF910C94B40161E0E4CF1D
:1005C00061E08091EB010E94B40160E0E2CF61E064
:1005D0008091EB010E94B40160E08091ED010E94E6
:1005E000B40161E0DBCF61E08091EB010E94B401D6
:1005F00060E08091ED010E94B40161E08091EF0123
:100600000E94B40160E0CFCF61E08091EB010E94D5
:10061000B40160E08BCF60E0F8CFDF91CF91089517
:100620009091000189130BC0ECE7F0E0E4919FEF9B
:1006300090930001E13049F028F0E23061F060E091
:100640000C94B40110926E00FACF90916F009D7FD0
:1006500090936F00F4CF909170009D7F9093700005
:1006600091E09093B0009091B100987F9460909346
:10067000B1001092B300E3CF3FB7F89480912D0101
:1006800090912E01A0912F01B091300126B5A89B29
:1006900005C02F3F19F00196A11DB11D3FBFBA2F14
:1006A000A92F982F8827BC01CD01620F711D811DD4
:1006B000911D42E0660F771F881F991F4A95D1F759
:1006C00008958F929F92AF92BF92CF92DF92EF9256
:1006D000FF924B015C010E943C036B017C010E9474
:1006E0003C036C197D098E099F09683E73408105A2
:1006F0009105A8F321E0821A9108A108B10888EEBB
:10070000C80E83E0D81EE11CF11C81149104A104E1
:10071000B10429F7FF90EF90DF90CF90BF90AF909A
:100720009F908F900895CF93DF93FC01019000205C
:10073000E9F73197AF01481B590BBC0182E491E006
:100740000E94A700EC0142E050E063E171E082E426
:1007500091E00E94A7008C0F9D1FDF91CF9108951B
:100760001F920F920FB60F9211242F933F934F9326
:100770005F936F937F938F939F93AF93BF93EF9309
:10078000FF938091360190913701A0913801B0918B
:100790003901892B8A2B8B2BD1F190913101E0917A
:1007A0003201F09133018081892780838091360165
:1007B00090913701A0913801B091390118161906AE
:1007C0001A061B069CF48091360190913701A09186
:1007D0003801B09139010197A109B109809336011F
:1007E00090933701A0933801B0933901FF91EF91B5
:1007F000BF91AF919F918F917F916F915F914F9139
:100800003F912F910F900FBE0F901F9018958091E0
:1008100000010E941003EACF1F920F920FB60F92B1
:1008200011242F933F934F935F936F937F938F93F5
:100830009F93AF93BF93EF93FF9382E491E00E9465
:100840002501FF91EF91BF91AF919F918F917F9182
:100850006F915F914F913F912F910F900FBE0F902D
:100860001F9018951F920F920FB60F9211242F937D
:100870008F939F93EF93FF93E0915201F091530177
:100880008081E0915801F091590182FD1BC0908157
:1008900080915B018F5F8F7320915C01821741F023
:1008A000E0915B01F0E0EE5BFE4F958F80935B0182
:1008B000FF91EF919F918F912F910F900FBE0F900D
:1008C0001F9018958081F4CF1F920F920FB60F9250
:1008D00011242F933F938F939F93AF93BF93809156
:1008E000290190912A01A0912B01B0912C01309106
:1008F000280123E0230F2D3758F50196A11DB11DC6
:10090000209328018093290190932A01A0932B0121
:10091000B0932C0180912D0190912E01A0912F0177
:10092000B09130010196A11DB11D80932D019093CE
:100930002E01A0932F01B0933001BF91AF919F91F1
:100940008F913F912F910F900FBE0F901F90189590
:1009500026E8230F0296A11DB11DD2CFCF93DF93BE
:10096000E2E4F1E01382128288EE93E0A0E0B0E0CE
:1009700084839583A683B78385E091E09183808308
:1009800085EC90E09587848784EC90E09787868754
:1009900080EC90E0918B808B81EC90E0938B828B4C
:1009A00082EC90E0958B848B86EC90E0978B868B25
:1009B000118E128E138E148ECFEDD1E01B861A8607
:1009C000198218821E8A1F8A188E198E86EF97E068
:1009D0009F838E838CE090E09D878C878AE090E0F7
:1009E0009F878E8789E090E0998B888B8BE090E0E1
:1009F0009B8B8A8B8CE00E9488008E850E948800E9
:100A000088890E9488008A890E9488001D8A1C8A21
:100A100084E090E099878887DF91CF91089578945A
:100A200084B5826084BD84B5816084BD85B58260F3
:100A300085BD85B5816085BD80916E0081608093A4
:100A40006E0010928100809181008260809381000D
:100A5000809181008160809381008091800081601D
:100A6000809380008091B10084608093B100809178
:100A7000B00081608093B00080917A0084608093A0
:100A80007A0080917A00826080937A0080917A0067
:100A9000816080937A0080917A00806880937A00E8
:100AA0001092C10088E00E94880080910001883087
:100AB00009F4CBC08F3F09F4DEC060E971E080E04B
:100AC00090E00E94610388E00E941003E0915201CF
:100AD000F091530182E08083E0914E01F0914F014B
:100AE0001082E0915001F09151018FEC80831092BF
:100AF0005A01E0915601F091570186E08083E09120
:100B00005401F0915501808180618083E09154010E
:100B1000F0915501808188608083E0915401F091CB
:100B20005501808180688083E0915401F0915501E6
:100B300080818F7D808386E191E00E9493032091E4
:100B4000E5013091E601032E000C440B550B60E0EB
:100B500077E883E993E00E943207CA01B90120E1F6
:100B600030E040E050E00E9432072093E1013093F2
:100B7000E2014093E3015093E40181E291E00E949D
:100B8000930381E090E09093E0018093DF01CDEF4B
:100B9000D1E004E010E08AE0E82EF12C209709F47F
:100BA0003CC10E943C038090F5019090F601A0901A
:100BB000F701B090F8012B013C01481859086A0868
:100BC0007B088090E1019090E201A090E301B09059
:100BD000E401481459046A047B0400F36093F501AE
:100BE0007093F6018093F7019093F8018091E901E9
:100BF0009091EA012091DF013091E001213031052F
:100C000009F0F7C001969093EA018093E9012091E1
:100C1000E5013091E6018217930721F41092EA0171
:100C20001092E90121978091E9019091EA012091C8
:100C3000E7013091E801B7012530310509F0B8012D
:100C40000E941E070E940002A9CFECE7F0E0C491C9
:100C5000C7FD33CF88E00E948800CC2309F479C017
:100C6000C23009F08DC08091B100887F846080938C
:100C7000B1008BE9ABC088E080930001ECE7F0E0C5
:100C8000C491CF3F09F419CFC13019F148F0C230F7
:100C900009F43DC0C7FD11CF88E00E948800E0CF75
:100CA00014BC15BC84B5826084BD85B5816085BDEA
:100CB000E9E9F0E0E491F0E0EE0FFF1FE358FF4FA9
:100CC00085919491EDEAF0E0E491E0933501C0E084
:100CD000C1CF1092800010928100809181008860C5
:100CE0008093810080918100816080938100E9E997
:100CF000F0E0E491F0E0EE0FFF1FE358FF4F859125
:100D00009491EDEAF0E0E491E0933401A3CF1092E6
:100D1000B0001092B1008091B00082608093B0006A
:100D20008091B10081608093B100E9E9F0E0E49145
:100D3000F0E0EE0FFF1FE358FF4F859194919093E1
:100D4000330180933201EDEAF0E0E491E093310168
:100D500081CF85B5887F836085BD8BE987BD8FEFA7
:100D60009FEFDC0180933E0190933F01A0934001EF
:100D7000B093410180916E00826080936E009DCEA1
:100D8000C130E9F480918100887F81608093810087
:100D90008FE097E290938900809388008FEF9FEF18
:100DA000DC0180933A0190933B01A0933C01B09306
:100DB0003D0180916F00826080936F007ECEC230D3
:100DC00021F0C1117ACE8FE0C9CF8FE08093B300BC
:100DD0008FEF9FEFDC018093360190933701A09352
:100DE0003801B09339018091700082608093700067
:100DF00064CE892B41F48091E5019091E6019093B6
:100E0000EA018093E9018091E9019091EA0101975B
:100E10009093EA018093E90105CF60E273E080E0FE
:100E200090E00E946103C0E0D0E02097F1F30E94BF
:100E300011018823D1F30E940000F7CF97FB072E02
:100E400016F4009407D077FD09D00E94570707FCDD
:100E500005D03EF4909581959F4F089570956195CA
:100E60007F4F0895052E97FB1EF400940E944907BA
:100E700057FD07D00E946B0707FC03D04EF40C947B
:100E8000490750954095309521953F4F4F4F5F4F03
:100E9000089590958095709561957F4F8F4F9F4FE6
:100EA0000895EE0FFF1F0590F491E02D0994AA1B01
:100EB000BB1B51E107C0AA1FBB1FA617B70710F045
:100EC000A61BB70B881F991F5A95A9F78095909577
:100ED000BC01CD010895A1E21A2EAA1BBB1BFD0186
:100EE0000DC0AA1FBB1FEE1FFF1FA217B307E40709
:100EF000F50720F0A21BB30BE40BF50B661F771F61
:100F0000881F991F1A9469F7609570958095909540
:0E0F10009B01AC01BD01CF010895F894FFCF05
:100F1E00FF000000004701A700D40094010501E383
:100F2E0000F7000D0A0048656C6C6F204D4454218B
:080F3E00004357203930000088
:00000001FF
