:100000000C945E000C9486000C9486000C94860080
:100010000C9486000C9486000C9486000C94550475
:100020000C9486000C9486000C9486000C94860038
:100030000C9486000C9486000C9486000C94860028
:100040000C9409050C9486000C94D7040C94B1040C
:100050000C9486000C9486000C9486000C94860008
:100060000C9486000C948600000000080002010039
:100070000003040700000000000000000200000070
:1000800000250028002B0000000000240027002A83
:100090000004040404040404040202020202020331
:1000A000030303030301020408102040800102043B
:1000B00008102001020408102000530511241FBE5F
:1000C000CFEFD8E0DEBFCDBF11E0A0E0B1E0ECE9BA
:1000D000FFE002C005900D92A033B107D9F722E0EE
:1000E000A0E3B1E001C01D92A130B207E1F710E03A
:1000F000CEE5D0E004C02197FE010E949007CD35E7
:10010000D107C9F70E94B4050C94CC070C940000E9
:1001100090E0FC01EB55FF4F24918F569F4FFC015F
:100120008491882399F090E0880F991FFC01E9578A
:10013000FF4FA591B491FC01E358FF4F8591949135
:100140008FB7F894EC91E22BEC938FBF0895AF92A8
:10015000BF92CF92DF92EF92FF920F931F93CF93B4
:10016000DF936C017B018B01040F151FEB015E0116
:10017000AE18BF08C017D10759F06991D601ED91AB
:10018000FC910190F081E02DC6010995892B79F74A
:10019000C501DF91CF911F910F91FF90EF90DF90FC
:1001A000CF90BF90AF900895FC01538D448D252FC3
:1001B00030E0842F90E0821B930B541710F0CF9601
:1001C000089501970895FC01918D828D981761F033
:1001D000A28DAE0FBF2FB11D5D968C91928D9F5F4A
:1001E0009F73928F90E008958FEF9FEF0895FC0129
:1001F000918D828D981731F0828DE80FF11D858DDC
:1002000090E008958FEF9FEF0895FC01918D228D6E
:10021000892F90E0805C9F4F821B91098F739927F3
:1002200008958AE491E00E94050121E0892B09F4F8
:1002300020E0822F089580E090E0892B29F00E9431
:10024000110181110C9400000895FC01A48DA80FE8
:10025000B92FB11DA35ABF4F2C91848D90E0019608
:100260008F739927848FA689B7892C93A089B18928
:100270008C91837080648C93938D848D981306C0C9
:100280000288F389E02D80818F7D80830895EF922D
:10029000FF920F931F93CF93DF93EC0181E0888F40
:1002A0009B8D8C8D98131AC0E889F989808185FF10
:1002B00015C09FB7F894EE89FF896083E889F989B2
:1002C00080818370806480839FBF81E090E0DF91B4
:1002D000CF911F910F91FF90EF900895F62E0B8D07
:1002E00010E00F5F1F4F0F731127E02E8C8D8E11C2
:1002F0000CC00FB607FCFACFE889F989808185FF29
:10030000F5CFCE010E942501F1CFEB8DEC0FFD2F33
:10031000F11DE35AFF4FF0829FB7F8940B8FEA89E3
:10032000FB8980818062CFCFCF93DF93EC01888DF2
:100330008823B9F0AA89BB89E889F9898C9185FD60
:1003400003C0808186FD0DC00FB607FCF7CF8C91EE
:1003500085FFF2CF808185FFEDCFCE010E94250180
:10036000E9CFDF91CF91089590E0FC01E859FF4F6C
:100370002491FC01EB55FF4F3491FC01EF56FF4FE8
:10038000E491EE23C9F0222339F0233001F1A8F4DF
:10039000213019F1223029F1F0E0EE0FFF1FE35870
:1003A000FF4FA591B4918FB7F894EC91611126C0DD
:1003B00030953E233C938FBF08952730A9F0283015
:1003C000C9F0243049F7809180008F7D03C080916F
:1003D00080008F7780938000DFCF84B58F7784BDD6
:1003E000DBCF84B58F7DFBCF8091B0008F7780937A
:1003F000B000D2CF8091B0008F7DF9CF3E2BDACF05
:10040000CF93DF93EC018091EF019091F00102977F
:1004100049F4C130D10509F43BC06CF560E0209788
:1004200009F437C08091EF019091F001049749F4ED
:10043000C130D10509F45CC00CF037C0209709F435
:1004400042C08091EF019091F001059709F0E5C05D
:10045000CA30D10508F0E1C0FE01EF5CFD4F0C94FD
:10046000900790029C02AD02C302DE02E002E702A6
:10047000F30204030B03C230D105A9F060E0C330DE
:10048000D10581F68091F3010E94B40160E006C0BD
:1004900061E08091F3010E94B40161E08091F50177
:1004A0000E94B401BFCF61E0EDCFC230D10539F178
:1004B000C330D10509F0C5CF61E08091F3010E94FE
:1004C000B40160E022C061E08091F3010E94B401B8
:1004D00060E08091F5010E94B40161E08091F70134
:1004E0000E94B40160E08091F9010E94B401A9CF9B
:1004F00060E08091F3010E94B40161E0EACF60E026
:100500008091F3010E94B40161E08091F5010E94A5
:10051000B40160E08091F7010E94B40161E0E3CF93
:1005200060E08091F3010E94B40161E08091F501E7
:100530000E94B40161E00BC060E08091F3010E9471
:10054000B40161E08091F5010E94B40160E0809106
:10055000F7010E94B40160E010C060E08091F301F7
:100560000E94B40161E08091F5010E94B40160E055
:100570008091F7010E94B40161E08091F9010E942D
:10058000B40161E015C060E08091F3010E94B40104
:1005900061E08091F5010E94B40160E08091F70173
:1005A0000E94B40161E08091F9010E94B40160E011
:1005B0008091FB01DF91CF910C94B40161E0E4CF15
:1005C00061E08091F3010E94B40160E0E2CF61E05C
:1005D0008091F3010E94B40160E08091F5010E94D6
:1005E000B40161E0DBCF61E08091F3010E94B401CE
:1005F00060E08091F5010E94B40161E08091F70113
:100600000E94B40160E0CFCF61E08091F3010E94CD
:10061000B40160E08BCF60E0F8CFDF91CF91089517
:100620009091000189130BC0ECE7F0E0E4919FEF9B
:1006300090930001E13049F028F0E23061F060E091
:100640000C94B40110926E00FACF90916F009D7FD0
:1006500090936F00F4CF909170009D7F9093700005
:1006600091E09093B0009091B100987F9460909346
:10067000B1001092B300E3CF3FB7F89480913501F9
:1006800090913601A0913701B091380126B5A89B11
:1006900005C02F3F19F00196A11DB11D3FBFBA2F14
:1006A000A92F982F8827BC01CD01620F711D811DD4
:1006B000911D42E0660F771F881F991F4A95D1F759
:1006C00008954F925F926F927F928F929F92AF9216
:1006D000BF92EF92FF920F931F93CF93DF93EC01A2
:1006E00097FF04C0CC27DD27C81BD90B18161906A5
:1006F0000CF061C081E090E09093E8018093E70105
:1007000004E010E08AE0E82EF12C209709F46FC095
:100710000E943C038090FD019090FE01A090FF019B
:10072000B09000022B013C01481859086A087B0868
:100730008090E9019090EA01A090EB01B090EC016B
:10074000481459046A047B0400F36093FD0170931C
:10075000FE018093FF01909300028091F10190913E
:10076000F2012091E7013091E8012130310559F57E
:1007700001969093F2018093F1012091ED01309167
:10078000EE018217930721F41092F2011092F10109
:1007900021978091F1019091F2012091EF01309128
:1007A000F001B7012530310509F0B8010E945D075D
:1007B0000E940002AACF892B09F4A2CF1092E8016F
:1007C0001092E7019DCF892B41F48091ED0190912A
:1007D000EE019093F2018093F1018091F1019091EB
:1007E000F20101979093F2018093F101D1CFDF9153
:1007F000CF911F910F91FF90EF90BF90AF909F907E
:100800008F907F906F905F904F9008958F929F92FE
:10081000AF92BF92CF92DF92EF92FF924B015C01B9
:100820000E943C036B017C010E943C036C197D0912
:100830008E099F09683E734081059105A8F321E068
:10084000821A9108A108B10888EEC80E83E0D81E6C
:10085000E11CF11C81149104A104B10429F7FF905B
:10086000EF90DF90CF90BF90AF909F908F900895C2
:10087000CF93DF93FC0101900020E9F73197AF019E
:10088000481B590BBC018AE491E00E94A700EC01CF
:1008900042E050E063E171E08AE491E00E94A70049
:1008A0008C0F9D1FDF91CF9108951F920F920FB66D
:1008B0000F9211242F933F934F935F936F937F93E6
:1008C0008F939F93AF93BF93EF93FF9380913E01DC
:1008D00090913F01A0914001B0914101892B8A2B59
:1008E0008B2BD1F190913901E0913A01F0913B01CC
:1008F00080818927808380913E0190913F01A09162
:100900004001B0914101181619061A061B069CF405
:1009100080913E0190913F01A0914001B091410131
:100920000197A109B10980933E0190933F01A093E3
:100930004001B0934101FF91EF91BF91AF919F9121
:100940008F917F916F915F914F913F912F910F9078
:100950000FBE0F901F901895809100010E94100308
:10096000EACF1F920F920FB60F9211242F933F934D
:100970004F935F936F937F938F939F93AF93BF93A7
:10098000EF93FF938AE491E00E942501FF91EF919C
:10099000BF91AF919F918F917F916F915F914F9197
:1009A0003F912F910F900FBE0F901F9018951F929F
:1009B0000F920FB60F9211242F938F939F93EF9363
:1009C000FF93E0915A01F0915B018081E091600119
:1009D000F091610182FD1BC09081809163018F5F66
:1009E0008F7320916401821741F0E0916301F0E080
:1009F000E65BFE4F958F80936301FF91EF919F918E
:100A00008F912F910F900FBE0F901F90189580819E
:100A1000F4CF1F920F920FB60F9211242F933F9392
:100A20008F939F93AF93BF93809131019091320147
:100A3000A0913301B09134013091300123E0230FB4
:100A40002D3758F50196A11DB11D209330018093DB
:100A5000310190933201A0933301B093340180911E
:100A6000350190913601A0913701B091380101967E
:100A7000A11DB11D8093350190933601A0933701DC
:100A8000B0933801BF91AF919F918F913F912F917A
:100A90000F900FBE0F901F90189526E8230F029617
:100AA000A11DB11DD2CFCF93DF93EAE4F1E0138211
:100AB000128288EE93E0A0E0B0E084839583A68361
:100AC000B78385E091E09183808385EC90E0958702
:100AD000848784EC90E09787868780EC90E0918B08
:100AE000808B81EC90E0938B828B82EC90E0958BF5
:100AF000848B86EC90E0978B868B118E128E138EF2
:100B0000148EC7EED1E01B861A86198218821E8ABF
:100B10001F8A188E198E86EF97E09F838E838CE054
:100B200090E09D878C878AE090E09F878E8789E0A0
:100B300090E0998B888B8BE090E09B8B8A8B8CE08C
:100B40000E9488008E850E94880088890E94880003
:100B50008A890E9488001D8A1C8A84E090E0998717
:100B60008887DF91CF910895789484B5826084BDA1
:100B700084B5816084BD85B5826085BD85B58160A1
:100B800085BD80916E00816080936E00109281001F
:100B900080918100826080938100809181008160DA
:100BA000809381008091800081608093800080919B
:100BB000B10084608093B1008091B0008160809327
:100BC000B00080917A00846080937A0080917A00EE
:100BD000826080937A0080917A00816080937A00AD
:100BE00080917A00806880937A001092C10088E03A
:100BF0000E94880080910001883009F48AC08F3FEC
:100C000009F49DC060E971E080E090E00E94060474
:100C100088E00E941003E0915A01F0915B0182E0AC
:100C20008083E0915601F09157011082E0915801C4
:100C3000F09159018FEC808310926201E0915E0186
:100C4000F0915F0186E08083E0915C01F0915D01AD
:100C5000808180618083E0915C01F0915D01808101
:100C600088608083E0915C01F0915D018081806803
:100C70008083E0915C01F0915D0180818F7D8083B4
:100C800086E191E00E9438042091ED013091EE015F
:100C9000032E000C440B550B60E077E883E993E0EA
:100CA0000E947107CA01B90120E130E040E050E044
:100CB0000E9471072093E9013093EA014093EB0110
:100CC0005093EC0181E291E00E9438048DEF91E0B5
:100CD0000E94610360E273E080E090E00E940604FD
:100CE00087E291E00E94380485E09CEF0E94610356
:100CF00060E273E080E090E00E940604C0E0D0E093
:100D00002097F1F30E9411018823D1F30E94000083
:100D1000F7CFECE7F0E0C491C7FD74CF88E00E9404
:100D20008800CC2309F479C0C23009F08DC08091CD
:100D3000B100887F84608093B1008BE9ABC088E00C
:100D400080930001ECE7F0E0C491CF3F09F45ACF63
:100D5000C13019F148F0C23009F43DC0C7FD52CF8F
:100D600088E00E948800E0CF14BC15BC84B5826086
:100D700084BD85B5816085BDE9E9F0E0E491F0E0EE
:100D8000EE0FFF1FE358FF4F85919491EDEAF0E0DD
:100D9000E491E0933D01C0E0C1CF10928000109239
:100DA0008100809181008860809381008091810022
:100DB000816080938100E9E9F0E0E491F0E0EE0FDA
:100DC000FF1FE358FF4F85919491EDEAF0E0E49125
:100DD000E0933C01A3CF1092B0001092B10080913B
:100DE000B00082608093B0008091B10081608093F8
:100DF000B100E9E9F0E0E491F0E0EE0FFF1FE35805
:100E0000FF4F8591949190933B0180933A01EDEAD5
:100E1000F0E0E491E093390181CF85B5887F83606C
:100E200085BD8BE987BD8FEF9FEFDC018093460185
:100E300090934701A0934801B093490180916E00BF
:100E4000826080936E00DECEC130E9F48091810033
:100E5000887F8160809381008FE097E29093890082
:100E6000809388008FEF9FEFDC0180934201909385
:100E70004301A0934401B093450180916F008260CB
:100E800080936F00BFCEC23021F0C111BBCE8FE086
:100E9000C9CF8FE08093B3008FEF9FEFDC01809389
:100EA0003E0190933F01A0934001B0934101809196
:100EB0007000826080937000A5CE97FB072E16F419
:100EC000009407D077FD09D00E94960707FC05D053
:100ED0003EF4909581959F4F0895709561957F4F51
:100EE0000895052E97FB1EF400940E94880757FD75
:100EF00007D00E94AA0707FC03D04EF40C94880781
:100F000050954095309521953F4F4F4F5F4F089535
:100F100090958095709561957F4F8F4F9F4F089565
:100F2000EE0FFF1F0590F491E02D0994AA1BBB1B47
:100F300051E107C0AA1FBB1FA617B70710F0A61BD9
:100F4000B70B881F991F5A95A9F780959095BC01FA
:100F5000CD010895A1E21A2EAA1BBB1BFD010DC0F5
:100F6000AA1FBB1FEE1FFF1FA217B307E407F50759
:100F700020F0A21BB30BE40BF50B661F771F881F35
:100F8000991F1A9469F760957095809590959B01CB
:0C0F9000AC01BD01CF010895F894FFCF23
:100F9C00FF000000004701A700D40094010501E305
:100FAC0000F7000D0A0048656C6C6F204D4454210D
:100FBC00004357203930004343572031383000006C
:107E0000112484B714BE81FFF0D085E080938100F7
:107E100082E08093C00088E18093C10086E0809377
:107E2000C20080E18093C4008EE0C9D0259A86E02C
:107E300020E33CEF91E0309385002093840096BBD3
:107E4000B09BFECF1D9AA8958150A9F7CC24DD24C4
:107E500088248394B5E0AB2EA1E19A2EF3E0BF2EE7
:107E6000A2D0813461F49FD0082FAFD0023811F036
:107E7000013811F484E001C083E08DD089C08234E0
:107E800011F484E103C0853419F485E0A6D080C0E4
:107E9000853579F488D0E82EFF2485D0082F10E0AE
:107EA000102F00270E291F29000F111F8ED06801E7
:107EB0006FC0863521F484E090D080E0DECF843638
:107EC00009F040C070D06FD0082F6DD080E0C81688
:107ED00080E7D80618F4F601B7BEE895C0E0D1E017
:107EE00062D089930C17E1F7F0E0CF16F0E7DF06D8
:107EF00018F0F601B7BEE89568D007B600FCFDCFD4
:107F0000A601A0E0B1E02C9130E011968C91119780
:107F100090E0982F8827822B932B1296FA010C0160
:107F200087BEE89511244E5F5F4FF1E0A038BF0790
:107F300051F7F601A7BEE89507B600FCFDCF97BE46
:107F4000E89526C08437B1F42ED02DD0F82E2BD052
:107F50003CD0F601EF2C8F010F5F1F4F84911BD097
:107F6000EA94F801C1F70894C11CD11CFA94CF0C13
:107F7000D11C0EC0853739F428D08EE10CD085E9AC
:107F80000AD08FE07ACF813511F488E018D01DD067
:107F900080E101D065CF982F8091C00085FFFCCF94
:107FA0009093C60008958091C00087FFFCCF809118
:107FB000C00084FD01C0A8958091C6000895E0E648
:107FC000F0E098E1908380830895EDDF803219F02E
:107FD00088E0F5DFFFCF84E1DECF1F93182FE3DFCA
:107FE0001150E9F7F2DF1F91089580E0E8DFEE27F6
:047FF000FF270994CA
:027FFE00040479
:0400000300007E007B
:00000001FF
