:100000000C9442050C946A050C946A050C946A05DC
:100010000C946A050C946A050C946A050C945816A5
:100020000C946A050C946A050C946A050C946A0594
:100030000C946A050C946A050C946A050C946A0584
:100040000C940C170C946A050C94DA160C94B416E4
:100050000C946A050C946A050C946A050C946A0564
:100060000C9456170C946A0500000000003E5B4F8C
:100070005B3E3E6B4F6B3E1C3E7C3E1C183C7E3C08
:10008000181C577D571C1C5E7F5E1C00183C180016
:10009000FFE7C3E7FF0018241800FFE7DBE7FF30A6
:1000A000483A060E2629792926407F050507407F14
:1000B00005253F5A3CE73C5A7F3E1C1C08081C1C87
:1000C0003E7F14227F22145F5F005F5F06097F017D
:1000D0007F006689956A606060606094A2FFA29468
:1000E00008047E040810207E201008082A1C080836
:1000F0001C2A08081E101010100C1E0C1E0C303884
:100100003E3830060E3E0E06000000000000005F84
:1001100000000007000700147F147F14242A7F2AA0
:100120001223130864623649562050000807030062
:10013000001C2241000041221C002A1C7F1C2A08AE
:10014000083E080800807030000808080808000011
:1001500060600020100804023E5149453E00427F85
:10016000400072494949462141494D331814127FD4
:100170001027454545393C4A494931412111090774
:100180003649494936464949291E000014000000F5
:1001900040340000000814224114141414140041C7
:1001A00022140802015909063E415D594E7C121184
:1001B000127C7F494949363E414141227F414141BC
:1001C0003E7F494949417F090909013E4141517337
:1001D0007F0808087F00417F41002040413F017FA8
:1001E000081422417F404040407F021C027F7F0470
:1001F00008107F3E4141413E7F090909063E4151B9
:10020000215E7F09192946264949493203017F01A8
:10021000033F4040403F1F2040201F3F4038403FA9
:10022000631408146303047804036159494D4300BF
:100230007F4141410204081020004141417F0402F6
:10024000010204404040404000030708002054548D
:1002500078407F284444383844444428384444286B
:100260007F385454541800087E090218A4A49C78BE
:100270007F0804047800447D40002040403D007F1A
:100280001028440000417F40007C047804787C08FA
:100290000404783844444438FC18242418182424CE
:1002A00018FC7C08040408485454542404043F44B3
:1002B000243C4040207C1C2040201C3C4030403CE2
:1002C00044281028444C9090907C4464544C440042
:1002D00008364100000077000000413608000201A6
:1002E0000204023C2623263C1EA1A161123A404092
:1002F000207A38545455592155557941225454780F
:1003000042215554784020545579400C1E527212A7
:100310003955555559395454545939555454580030
:1003200000457C410002457D420001457C407D1234
:1003300011127DF0282528F07C5455450020545496
:100340007C547C0A097F4932494949323A44444441
:100350003A324A4848303A4141217A3A424020787C
:10036000009DA0A07D3D4242423D3D4040403D3C7D
:1003700024FF2424487E4943662B2FFC2F2BFF09A2
:1003800029F620C0887E0903205454794100004496
:100390007D413048484A32384040227A007A0A0A81
:1003A000727D0D19317D2629292F282629292926F4
:1003B00030484D4020380808080808080808382F39
:1003C00010C8ACBA2F102834FA00007B00000814C3
:1003D0002A142222142A14085500550055AA55AA99
:1003E00055AAFF55FF55FF000000FF00101010FF39
:1003F00000141414FF001010FF00FF1010F010F094
:10040000141414FC001414F700FF0000FF00FF1484
:1004100014F404FC141417101F10101F101F1414D0
:10042000141F00101010F0000000001F101010101A
:100430001F10101010F010000000FF10101010100E
:1004400010101010FF10000000FF140000FF00FF4C
:1004500000001F10170000FC04F4141417101714E8
:1004600014F404F40000FF00F7141414141414140A
:10047000F700F7141414171410101F101F1414147D
:10048000F4141010F010F000001F101F0000001FE7
:1004900014000000FC140000F010F01010FF10FF1A
:1004A000141414FF141010101F00000000F010FFAF
:1004B000FFFFFFFFF0F0F0F0F0FFFFFF0000000093
:1004C00000FFFF0F0F0F0F0F3844443844FC4A4A17
:1004D0004A347E02020606027E027E0263554941CC
:1004E000633844443C04407E201E2006027E020203
:1004F00099A5E7A5991C2A492A1C4C7201724C3017
:100500004A4D4D303048784830BC625A463D3E49ED
:100510004949007E0101017E2A2A2A2A2A44445F91
:10052000444440514A444040444A51400000FF0185
:1005300003E080FF000008086B6B08361236243693
:10054000060F090F060000181800000010100030F8
:1005500040FF0101001F01011E00191D1712003C80
:100560003C3C3C0000000000000103070F1F3F7FE0
:100570000080C0E0F0F8FCFE00000008000201006E
:1005800000030407000000000000000002DB40A49C
:10059000A62EAF2000A1C8D300408DAED580A80004
:1005A00000600000000000000000000000000000EB
:1005B000E00000000000000000000000000001E07A
:1005C0000000000000000000000000000001F0003A
:1005D00000000000000000000000000003F0000028
:1005E000000000000000000000000007F000000014
:1005F0000000000000000000000007F800000000FC
:100600000000000000000000000FF800000003C020
:10061000007E000001E0007F0FF800000003C00032
:10062000FE000001E000FFEFF800000003C000FE44
:10063000000001E000FFFFF800000003C000F00030
:1006400000000F007FFE7FC0000003C000F000002C
:10065000000F003FFE7FF83FF1FBCFFCFEF3BC3DF7
:10066000EFE01FFE7FFF7FFBFFDFFEFEFFBC3DEFE5
:10067000E01FC6FFFF7FFBFFDFFEFEFFBC3DEFE09C
:100680000FE3C7FE787BC3DE1EF0FFBC3DEF000723
:10069000FF87FC787BC3DE1EF0F83C3DEF0001FFD6
:1006A000FFF0007BC3C01EF0F03C3DEF0001F37F84
:1006B000E03FFBC3CFFEF0F03C3DEF0003E33F80A3
:1006C0007FFBC3DFFEF0F03C3DEF0007E73C007826
:1006D0007BC3DE1EF0F03C3DEF0007FFBE00787BE1
:1006E000C3DE1EF0F03C3DEF0007FFFE00787BC349
:1006F000DE1EF0F03C3DEF000FFFFE007FFBFFDF52
:10070000FEF0F03FFDEFE00FFFFF007FFBFFDFFE9D
:10071000F0F03FFDEFE00FF9FF003E79F9CF9EF0DA
:10072000F01F3DE7E01FF1FF0000000000000000A7
:10073000000000001F80FF007FFFFFFFFFFFFFFFA3
:10074000FFFFE01C007F007FFFFFFFFEB46D888D80
:1007500018E000001F007FFFFFFFFE95AD7DB5771D
:10076000E000000F007FFFFFFFFEA5AD9D8D19E0AB
:10077000000006007FFFFFFFFEB5ADEDB57EE00097
:1007800000000000018000000000000000000003E5
:100790008000000000000000000007C00000000012
:1007A000000000000007C000000000000000000082
:1007B0000FC00000000000000000001FE00000006B
:1007C0000000000000001FE000000000000000002A
:1007D000003FE00000000000000000003FF00000CB
:1007E000000000000000007FF0000000000000009A
:1007F0001FF87FF0000000000000003FFE7FF000C7
:100800000000000000003FFF7FF00000000000003B
:10081000001FFFFBE0000000000000000FFFF9FFD9
:10082000C00000000000000FFFF9FFF8000000000A
:10083000000007FFF1FFFF00000000000003FC7351
:10084000FFFF80000000000001FE3FFFFF8000006E
:1008500000000000FF1E0FFF000000000000007FEE
:10086000FE1FFC000000000000003FFFFFF800003A
:1008700000000000000FDFFFE000000000000000AB
:100880001F19FFC0000000000000003F3CFF0000F7
:100890000000000000007E7CF80000000000000066
:1008A000007FFE7C0000000000000000FFFFFC0055
:1008B00000000000000000FFFFFE0000000000003C
:1008C0000000FFFFFE0000000000000001FFEFFE3F
:1008D0000000000000000001FFCFFE00000000004B
:1008E000000003FF07FE0000000000000003FC07FB
:1008F000FE0000000000000003F003FE0000000006
:10090000000000018000FE00000000000000000068
:10091000007E000000000000000000003E0000001B
:10092000000000000000000C000000000000078034
:1009300000FC000003C0000000078001FC00000371
:10094000C0000000078001FC000003C00000000799
:100950008001E00000001E000000078001E00000B0
:10096000001E007FE3F79FF9FDE7787BDFC0FFF70C
:10097000FFBFFDFDFF787BDFC0FFF7FFBFFDFDFF81
:10098000787BDFC0F0F787BC3DE1FF787BDE00F0CD
:10099000F787BC3DE1F0787BDE0000F787803DE122
:1009A000E0787BDE007FF7879FFDE1E0787BDE006B
:1009B000FFF787BFFDE1E0787BDE00F0F787BC3D05
:1009C000E1E0787BDE00F0F787BC3DE1E0787BDE9C
:1009D00000F0F787BC3DE1E0787BDE00FFF7FFBF6A
:1009E000FDE1E07FFBDFC0FFF7FFBFFDE1E07FFB44
:1009F000DFC07CF3F39F3DE1E03E7BCFC000000011
:100A00000000000000000000FFFFFFFFFFFFFFFFEE
:100A1000FFFFC0FFFFFFFFFD68DB111A31C0FFFFC2
:100A2000FFFFFD2B5AFB6AEFC0FFFFFFFFFD4B5B93
:100A30003B1A33C0FFFFFFFFFD6B5BDB6AFDC0228B
:100A400000FF210000000000250028002B0000000E
:100A50000000240027002A00040404040404040401
:100A60000202020202020303030303030102040859
:100A70001020408001020408102001020408102008
:100A800075184A1D11241FBECFEFD8E0DEBFCDBFC1
:100A900011E0A0E0B1E0ECE0FEE302C005900D92B1
:100AA000A038B107D9F723E0A0E8B1E001C01D925A
:100AB000AC35B207E1F715E0C1E4D5E004C02197F9
:100AC000FE010E94AE1DC034D107C9F70E942C1947
:100AD0000C94F91E0C94000090E0FC01E459F54FD1
:100AE0002491885A954FFC018491882399F090E0D5
:100AF000880F991FFC01E25BF54FA591B491FC01B1
:100B0000EC5BF54F859194918FB7F894EC91E22BC3
:100B1000EC938FBF0895089508950895AF92BF9202
:100B2000CF92DF92EF92FF920F931F93CF93DF93B9
:100B30006C017B018B01040F151FEB015E01AE18E8
:100B4000BF08C017D10759F06991D601ED91FC910A
:100B50000190F081E02DC6010995892B79F7C50137
:100B6000DF91CF911F910F91FF90EF90DF90CF9089
:100B7000BF90AF900895FC01538D448D252F30E038
:100B8000842F90E0821B930B541710F0CF9608959A
:100B900001970895FC01918D828D981761F0A28DC7
:100BA000AE0FBF2FB11D5D968C91928D9F5F9F738D
:100BB000928F90E008958FEF9FEF0895FC01918D43
:100BC000828D981731F0828DE80FF11D858D90E0B0
:100BD00008958FEF9FEF0895FC01918D228D892F4D
:100BE00090E0805C9F4F821B91098F739927089535
:100BF00085E592E00E94EC0521E0892B09F420E0D4
:100C0000822F089580E090E0892B29F00E94F8055A
:100C100081110C9400000895FC01A48DA80FB92F38
:100C2000B11DA35ABF4F2C91848D90E001968F7314
:100C30009927848FA689B7892C93A089B1898C9133
:100C4000837080648C93938D848D981306C0028882
:100C5000F389E02D80818F7D80830895EF92FF924C
:100C60000F931F93CF93DF93EC0181E0888F9B8DCF
:100C70008C8D98131AC0E889F989808185FF15C089
:100C80009FB7F894EE89FF896083E889F9898081AC
:100C90008370806480839FBF81E090E0DF91CF917B
:100CA0001F910F91FF90EF900895F62E0B8D10E09D
:100CB0000F5F1F4F0F731127E02E8C8D8E110CC00C
:100CC0000FB607FCFACFE889F989808185FFF5CF57
:100CD000CE010E940C06F1CFEB8DEC0FFD2FF11D24
:100CE000E35AFF4FF0829FB7F8940B8FEA89FB8994
:100CF00080818062CFCFCF93DF93EC01888D8823F2
:100D0000B9F0AA89BB89E889F9898C9185FD03C06E
:100D1000808186FD0DC00FB607FCF7CF8C9185FF53
:100D2000F2CF808185FFEDCFCE010E940C06E9CF86
:100D3000DF91CF91089590E0FC01E858FA4F24919B
:100D4000FC01E459F54F3491FC01E85AF54FE49168
:100D5000EE23C9F0222339F0233001F1A8F4213029
:100D600019F1223029F1F0E0EE0FFF1FEC5BF54F97
:100D7000A591B4918FB7F894EC91611126C030958C
:100D80003E233C938FBF08952730A9F02830C9F047
:100D9000243049F7809180008F7D03C080918000CE
:100DA0008F7780938000DFCF84B58F7784BDDBCFD2
:100DB00084B58F7DFBCF8091B0008F778093B0009A
:100DC000D2CF8091B0008F7DF9CF3E2BDACFCF9379
:100DD000DF93EC018091460390914703029749F419
:100DE000C130D10509F43BC06CF560E0209709F4EF
:100DF00037C08091460390914703049749F4C1306E
:100E0000D10509F45CC00CF037C0209709F442C04A
:100E10008091460390914703059709F0E5C0CA30D9
:100E2000D10508F0E1C0FE01E85EF84F0C94AE1D5C
:100E3000770783079407AA07C507C707CE07DA070E
:100E4000EB07F207C230D105A9F060E0C330D1054D
:100E500081F680914A030E949B0660E006C061E033
:100E600080914A030E949B0661E080914C030E949E
:100E70009B06BFCF61E0EDCFC230D10539F1C33061
:100E8000D10509F0C5CF61E080914A030E949B061D
:100E900060E022C061E080914A030E949B0660E00E
:100EA00080914C030E949B0661E080914E030E945A
:100EB0009B0660E0809150030E949B06A9CF60E0F2
:100EC00080914A030E949B0661E0EACF60E0809136
:100ED0004A030E949B0661E080914C030E949B069E
:100EE00060E080914E030E949B0661E0E3CF60E0EA
:100EF00080914A030E949B0661E080914C030E940E
:100F00009B0661E00BC060E080914A030E949B0653
:100F100061E080914C030E949B0660E080914E034B
:100F20000E949B0660E010C060E080914A030E942E
:100F30009B0661E080914C030E949B0660E08091DB
:100F40004E030E949B0661E0809150030E949B0625
:100F500061E015C060E080914A030E949B0661E059
:100F600080914C030E949B0660E080914E030E949A
:100F70009B0661E0809150030E949B0660E0809197
:100F80005203DF91CF910C949B0661E0E4CF61E0C6
:100F900080914A030E949B0660E0E2CF61E080916D
:100FA0004A030E949B0660E080914C030E949B06CE
:100FB00061E0DBCF61E080914A030E949B0660E024
:100FC00080914C030E949B0661E080914E030E9439
:100FD0009B0660E0CFCF61E080914A030E949B06B0
:100FE00060E08BCF60E0F8CFDF91CF9108959091D2
:100FF000000189130BC0ECE8F5E0E4919FEF9093BA
:101000000001E13049F028F0E23061F060E00C943A
:101010009B0610926E00FACF90916F009D7F909387
:101020006F00F4CF909170009D7F9093700091E0DD
:101030009093B0009091B100987F94609093B1002C
:101040001092B300E3CF3FB7F894809135029091AE
:101050003602A0913702B091380226B5A89B05C090
:101060002F3F19F00196A11DB11D3FBFBA2FA92F27
:10107000982F8827BC01CD01620F711D811D911D24
:1010800042E0660F771F881F991F4A95D1F7089590
:101090004F925F926F927F928F929F92AF92BF9288
:1010A000EF92FF920F931F93CF93DF93EC0197FF83
:1010B00004C0CC27DD27C81BD90B181619060CF065
:1010C00061C081E090E090933F0380933E0304E091
:1010D00010E08AE0E82EF12C209709F46FC00E94FE
:1010E00023088090540390905503A0905603B0902D
:1010F00057032B013C01481859086A087B08809067
:10110000400390904103A0904203B09043034814E1
:1011100059046A047B0400F36093540370935503ED
:10112000809356039093570380914803909149030D
:1011300020913E0330913F032130310559F501964E
:1011400090934903809348032091440330914503D1
:101150008217930721F410924903109248032197B4
:1011600080914803909149032091460330914703B1
:10117000B7012530310509F0B8010E94591D0E94C0
:10118000E706AACF892B09F4A2CF10923F03109251
:101190003E039DCF892B41F48091440390914503F8
:1011A00090934903809348038091480390914903A9
:1011B00001979093490380934803D1CFDF91CF915A
:1011C0001F910F91FF90EF90BF90AF909F908F90E5
:1011D0007F906F905F904F9008958F929F92AF9203
:1011E000BF92CF92DF92EF92FF924B015C010E947F
:1011F00023086B017C010E9423086C197D098E096C
:101200009F09683E734081059105A8F321E0821A89
:101210009108A108B10888EEC80E83E0D81EE11C31
:10122000F11C81149104A104B10429F7FF90EF90FF
:10123000DF90CF90BF90AF909F908F900895EF92E6
:10124000FF920F931F93CF93DF93EC01EC80FD800F
:101250006E157F050CF070C057FF04C0240F351FBA
:1012600050E040E08E819F81FA01E20FF31F8E175C
:101270009F071CF49C01241B350B121613060CF05F
:101280005BC0922F842F8695869586958E9DD00182
:101290008F9DB00D11246A0F7B1FAF8DB8A1A60FD3
:1012A000B71F477049F188E0841B482F682F70E012
:1012B000FB01E059FA4FE491281708F063C0621B64
:1012C00071092FEF30E002C0359527956A95E2F756
:1012D000E2230130110539F0B0F10230110561F55A
:1012E0008C91E82702C08C91E82BEC93941720F1A5
:1012F0002C813D81A20FB31FE92FE41BE83078F069
:101300000230110521F58E2F9C9190959C932C8194
:101310003D81A20FB31F88508830B0F7E770EE23ED
:1013200059F0F0E0E859FA4FE49101301105F9F075
:1013300010F10230110519F1DF91CF911F910F913A
:10134000FF90EF900895E0958C91E823CECF81E057
:101350000115110509F480E081959E2F8C932C8155
:101360003D81A20FB31F98509830C0F7D7CF8C9112
:10137000E82BEC93E1CFE0958C91E823FACF8C91A8
:10138000E827F7CF0130110509F4ADCFE0F20230C4
:10139000110509F4A5CFAE0DBF1DAECF0F931F935E
:1013A000CF93DF9377FF04C0260F371F70E060E014
:1013B000DC011496CD91DC91FB01E20FF31FCE17F7
:1013C000DF071CF49E01261B370B121613064CF583
:1013D000FA0157FD3796A3E0F595E795AA95E1F751
:1013E000EC9FD001ED9FB00DFC9FB00D11246A0F52
:1013F0007B1FDC015F96ED91FC91E60FF71F4770B4
:10140000552781E090E001C0880F4A95EAF7482F00
:101410000130110559F0A8F02E0F3F1F02301105C1
:10142000E1F0DF91CF911F910F9108952E0F3F1F93
:10143000E217F307B1F38191DF011197842B8C93AD
:10144000F7CF80952E0F3F1FE217F30751F39191CD
:10145000DF01119798239C93F7CFE217F30709F365
:101460008191DF01119784278C93F7CF0F931F93FE
:10147000FA01DC0156964C9156974230E9F0433020
:10148000A1F1413061F514964D915C91DA01AE1BEA
:10149000BF0BFD01E21BF30B77FD0BC0DC011696C1
:1014A0004D915C916417750724F4AB01BF010E9454
:1014B000CE091F910F91089514964D915C91DA0118
:1014C000A61BB70BBD0161507109DC0116964D9149
:1014D0005C91DA01AE1BBF0BFD01E21BF30B77FD44
:1014E000E8CFAF010E941F09E4CF16964D915C91A1
:1014F000DA01A61BB70BBD0161507109CDCF0F9367
:101500001F93FA01DC0156964C9156974230A9F090
:10151000433091F1413019F514964D915C91DA0107
:10152000AE1BBF0BFD013197F7FD04C0AB01BF013E
:101530000E941F091F910F91089514964D915C917F
:10154000DA01A61BB70BBD01DC0116964D915C912B
:10155000DA01AE1BBF0BFD013197621B730BF7FD68
:10156000E9CFDC0116964D915C91E417F50714F76D
:10157000AF010E94CE09DECF16964D915C91DA0143
:10158000A61BB70BBD01621B730BCECFFC0177FD11
:1015900064C080859185681779070CF05EC057FD9F
:1015A0005CC082859385481759070CF056C0868920
:1015B0008230B1F0833029F1813041F4848195810A
:1015C000841B950BAB01BC016150710921303105C1
:1015D00009F108F443C02230310509F463C00895CD
:1015E00084819581DC01A61BB70BBD016150710997
:1015F00086819781DC01A41BB50BAD0141505109D7
:10160000E5CF86819781861B970BBA01AC014150CB
:101610005109DCCFCA0157FD0796A3E09595879540
:10162000AA95E1F7A481B5818A9F90018B9F300D27
:101630009A9F300D1124620F731F078CF0A1E02DCB
:10164000E60FF71F4770552721E030E001C0220F59
:101650004A95EAF78081822B80830895CA0157FD5D
:10166000079633E0959587953A95E1F7A481B58182
:101670008A9F90018B9F300D9A9F300D1124620F2D
:10168000731F078CF0A1E02DE60FF71F4770552759
:1016900081E090E001C0880F4A95EAF7809590813B
:1016A0008923DACFCA0157FD079623E095958795E0
:1016B0002A95E1F7A481B5818A9F90018B9F300D17
:1016C0009A9F300D1124620F731F078CF0A1E02D3B
:1016D000E60FF71F4770552721E030E001C0220FC9
:1016E0004A95EAF780818227B7CF08958EBD000022
:1016F0000DB407FEFDCF8EB508958CBD9DBD089538
:101700000895FC016370668B848195812681378101
:10171000613039F0633029F09187808733872287E1
:101720000895318720879387828708952F923F926B
:101730004F925F926F927F928F929F92AF92BF92E1
:10174000CF92DF92EF92FF920F931F93CF93DF938D
:10175000CDB7DEB76A970FB6F894DEBF0FBECDBF28
:101760009A8F898F7A8369834A01D22E18870F83D3
:101770003701BC2CDC0159962D913C915A972115CB
:10178000310509F015C118968D919C91199768172C
:1017900079070CF0D7C11A968D919C91481759077B
:1017A0000CF0D0C14C2C512CB6E0CB9E600D711DBD
:1017B00011247C876B87161617060CF0C3C1EA2D1F
:1017C000F0E0FA87E98793E0EE0FFF1F9A95E1F7C3
:1017D000F88BEF87CF01840F951F181619060CF0B0
:1017E000B1C1A98DBA8D58968C91811104C0BFEA00
:1017F000BD1508F4D394A98DBA8DED91FC91119784
:101800000284F385E02DCD010995B5E0DB9EC00192
:101810001124E981FA81FC83EB83312C212C9C017A
:1018200028593F4F388F2F8B4A2D50E05E8B4D8BC0
:10183000EF89F88DE20DF31D44919E828D82D12CAB
:10184000C12C69817A81620D731D7A8B698B842F1B
:1018500090E09C8B8B8BE98DFA8DA081B18140FF4C
:1018600082C0F1E0BF126FC0AF126DC01C96ED9147
:10187000FC912F813885A4014C0D5D1D69897A8901
:10188000898D9A8D0995EB89FC89F595E7954E2F01
:101890005FEFC51AD50A6D817E818D899E89680F9B
:1018A000791F7E836D8398E0C916D10481F6AFEF6E
:1018B0002A1A3A0AEB81FC81E40DF51DFC83EB83C7
:1018C000F5E02F16310409F0B3CF2F8138852615A6
:1018D0003705B9F0A98DBA8DED91FC91B1E0BB123D
:1018E00057C0AB1255C069817A816B5F7F4F00880A
:1018F000F189E02D830128E030E0A401898D9A8DE3
:101900000995A98DBA8DED91FC9111970688F789FB
:10191000E02DCD016A960FB6F894DEBF0FBECDBFA5
:10192000DF91CF911F910F91FF90EF90DF90CF90BB
:10193000BF90AF909F908F907F906F905F904F90EF
:101940003F902F9009941E96ED91FC91EF80F884C2
:1019500009851A8592014D815E816B817C81898D1B
:101960009A8D099590CF2F8138852615370509F472
:101970008ACF31E0B31207C0A31205C01C96ED91C7
:10198000FC91930178CF1E96ED91FC917301E0CF0D
:101990006B857C85641975090684F785E02D7301D4
:1019A0000F8518899201A401898D9A8D0995A9CF77
:1019B000F90134969491329745915491D91AB7E030
:1019C000DB9E400D511D1124F901259134913C8B72
:1019D0002B8BFA0125903490FA013296749031964F
:1019E0003491398B329664903196449041E04C1595
:1019F00018F04A1508F07FC0662D062C000C770BF6
:101A00007C836B83842D042C000C990B9E838D8327
:101A1000A98DBA8DED91FC9111970284F385E02D8B
:101A2000CD010995512CD12CC12CEA2DF0E0FA877B
:101A3000E9872B2D30E03C872B87A401440D511DF5
:101A400047FC5A95588F4F8B69817A81660D711DBD
:101A500067FC7A957E876D877989C71608F051CF24
:101A60002C2D30E04D815E81420F531FA985BA8530
:101A70004A9FC0014B9F900D5A9F900D1124FC016D
:101A8000E80DF91DF88BEF87852D612C4F89588D56
:101A9000420F531F5E8B4D8B671408F050C04424D7
:101AA0004394480E877041F4C1010196EB89FC898B
:101AB000E20DF31DD4901C01D7FE19C0A98DBA8D7B
:101AC000ED91FC91662D70E0B1E0BB1219C0AB1234
:101AD00017C02D853E85620F731F0484F585E02DA8
:101AE0002F8138854D895E89898D9A8D0995DD0C08
:101AF0006394842DD1CF1E821D821C821B8288CFCD
:101B00004B815C81640F751FAB85BC856A9FC001EA
:101B10006B9F900D7A9F900D112469817A81680FD7
:101B2000791F0684F785E02DEF80F88409851A85F2
:101B30009D014F855889898D9A8D0995D8CF570C6D
:101B4000C3948ACF6A960FB6F894DEBF0FBECDBF9E
:101B5000DF91CF911F910F91FF90EF90DF90CF9089
:101B6000BF90AF909F908F907F906F905F904F90BD
:101B70003F902F9008958F929F92AF92CF92EF92C5
:101B8000FF920F931F93CF93DF93EC01262F898D44
:101B90009A8D009709F051C06A30D1F41D861C86D9
:101BA0008D8948E0849F900111248E859F85820F46
:101BB000931F9F878E8781E090E0DF91CF911F91E7
:101BC0000F91FF90EF90CF90AF909F908F900895DE
:101BD0006D3089F3CC88AD888F898823C1F08C85DE
:101BE0009D8536E0C39E800D911D11244885598541
:101BF0004817590764F44E855F851D861C8638E0BA
:101C0000A39EC0011124840F951F9F878E87EA88A9
:101C1000FB88088919894E855F856C857D85CE0195
:101C20000E94960B2C898C859D8546E0249F800D13
:101C3000911D11249D878C87BECF6A3069F41D8663
:101C40001C86FC013896E4912D898E859F85E29F44
:101C5000800D911D1124ADCF6D3009F4ACCFFC0186
:101C600034963491631708F4A6CF3296E491E617C0
:101C700008F4A1CFFC01329685909490462F431B27
:101C8000342F47E0349F800C911C1124F4013296CC
:101C900034913196E4913323A9F1EE2399F1CC8864
:101CA000F4013596E491AD884F89442301F10E2E5D
:101CB000000CFF0BE30FF11DCE9EA001CF9E500D37
:101CC00011246C857D85460F571F688579856417BB
:101CD00075076CF44E855F851D861C86FC01389661
:101CE000E491AE9E400D511D11245F874E87EA8816
:101CF000FB88088919894E855F856C857D85CE01B5
:101D00000E94960BF4013496E4912C898C859D8574
:101D1000E29F800D911D11248DCF6F927F928F9243
:101D20009F92AF92BF92CF92DF92EF92FF920F936A
:101D30001F93CF93DF93EC016B015A0139014801E6
:101D4000E881F9810284F385E02D0995E881F98124
:101D50000288F389E02D87019301A501B601CE0128
:101D60000995A501480D591D41505109E881F98196
:101D70000288F389E02D9301B601CE010995E8812F
:101D8000F9810088F189E02D9401A501B601CE0109
:101D90000995C60CD71CB60161507109E881F9811B
:101DA0000088F189E02D9401A501CE010995E88113
:101DB000F9810688F789E02DCE01DF91CF911F913F
:101DC0000F91FF90EF90DF90CF90BF90AF909F90DA
:101DD0008F907F906F9009946F927F928F929F92D5
:101DE000AF92BF92CF92DF92EF92FF920F931F9329
:101DF000CF93DF935C01EB016A0149013801870150
:101E0000DC01ED91FC916217730719F564167506F4
:101E10002CF0962D872D3A01C92ED82E9601261921
:101E200037092F5F3F4F048CF58DE02DA301BE01D4
:101E3000C5010995DF91CF911F910F91FF90EF9010
:101E4000DF90CF90BF90AF909F908F907F906F90DA
:101E500008954615570591F42617370724F0892D64
:101E60004B01C22FD82F9E01281939092F5F3F4FF0
:101E7000068CF78DE02DA601B401DACF0284F3853C
:101E8000E02D0995D501ED91FC910488F589E02DAF
:101E900083019401A601BE01C5010995D501ED910B
:101EA000FC910688F789E02DC501DF91CF911F9144
:101EB0000F91FF90EF90DF90CF90BF90AF909F90E9
:101EC0008F907F906F900994EF92FF920F931F93E2
:101ED000DC011A960D911C911B9718962D913C913F
:101EE0001997ED91FC9100A0F1A1E02D7B0150E04C
:101EF00040E070E060E009951F910F91FF90EF9036
:101F000008954F925F926F927F928F929F92AF92BD
:101F1000BF92CF92DF92EF92FF920F931F93CF93D6
:101F2000DF936C012B015A0139014801DC01ED916D
:101F3000FC910284F385E02D0995E201640C751C87
:101F4000D601ED91FC91C615D7055CF40088F189A6
:101F5000E02D87019401A501BE01C60109952196D6
:101F6000EFCF0688F789E02DC601DF91CF911F9151
:101F70000F91FF90EF90DF90CF90BF90AF909F9028
:101F80008F907F906F905F904F9009948F929F9267
:101F9000AF92BF92CF92DF92EF92FF920F931F9377
:101FA000CF93DF93EC015B014A016901E881F9817C
:101FB0000284F385E02D099595012C0D3D1D2150DE
:101FC0003109E881F9810488F589E02D78018401DF
:101FD000A401B501CE010995E881F9810688F78948
:101FE000E02DCE01DF91CF911F910F91FF90EF90E7
:101FF000DF90CF90BF90AF909F908F9009948F9279
:102000009F92AF92BF92CF92DF92EF92FF920F9387
:102010001F93CF93DF93EC015B014A0169017801C3
:10202000E881F9810284F385E02D0995C80CD91C5B
:10203000860101501109E881F9810488F589E02DB4
:102040009501A401B501CE010995E881F9810688C1
:10205000F789E02DCE01DF91CF911F910F91FF9075
:10206000EF90DF90CF90BF90AF909F908F900994AA
:10207000EF92FF920F931F93DC01ED91FC9100A072
:10208000F1A1E02D09951F910F91FF90EF90089518
:102090000F931F93DC01ED91FC91068CF78DE02DE1
:1020A00009951F910F9108950F931F93DC01ED91F6
:1020B000FC91048CF58DE02D09951F910F910895E9
:1020C000DC01ED91FC910084F185E02D09943F92B3
:1020D0004F925F926F927F928F929F92AF92BF9238
:1020E000CF92DF92EF92FF920F931F93CF93DF93E4
:1020F0005C017B014A016901390187E0680E711CAE
:1021000093E0759467949A95E1F72B01400E511E68
:1021100010E000E0312CD0E0C0E0CE0187709927BC
:10212000330C892B59F4FE0183E0F595E7958A95E8
:10213000E1F7E00FF11FE80DF91D349037FE0AC0FA
:1021400021E030E0A701B5016C0F7D1F8EEF92E01A
:102150000E9460102196CC16DD06F9F68FEFE81A82
:10216000F80A060D171DE414F504A9F6DF91CF91C6
:102170001F910F91FF90EF90DF90CF90BF90AF90A5
:102180009F908F907F906F905F904F903F900895B9
:102190002F923F924F925F926F927F928F929F9277
:1021A000AF92BF92CF92DF92EF92FF920F931F9365
:1021B000CF93DF9300D000D000D0CDB7DEB73C0185
:1021C0006A013E832D83FC82EB825801A41AB50A72
:1021D000B7FE03C0B194A194B1088D809E80861A89
:1021E000970A97FE03C09194819491088A149B04E6
:1021F0005CF0902F812F0D811E819D838E839C2DFD
:102200008D2D6B01692F782F0C151D055CF09D81BC
:102210008E817E836D83692F782F902F812F860189
:10222000C92ED82E1601201A310A2B012D813E818C
:10223000421A530A57FE03C0519441945108710148
:1022400037FE03C03FEFE31AF30AF594E7948D815C
:102250009E81861797075CF5A1E0B0E0BA83A98359
:10226000C016D1064CF1D301ED91FC910484F585A3
:10227000E02D2B813C81A8016D817E818A149B0415
:102280001CF04D815E81B801C3010995E418F50881
:10229000F7FE0AC02D813E8189819A81280F391F5E
:1022A0003E832D83E20CF31C0F5F1F4FD9CF2FEF1E
:1022B0003FEF3A832983D4CF26960FB6F894DEBF3A
:1022C0000FBECDBFDF91CF911F910F91FF90EF9087
:1022D000DF90CF90BF90AF909F908F907F906F9046
:1022E0005F904F903F902F90089508952091E601C0
:1022F000260F3327331F21323105ECF420910A02D7
:10230000FC0190E080E0243069F082E00895A09123
:10231000E6012191AC014A535E4FA40FB52FB11DC8
:102320002C930196861798F38091E601680F6093CD
:10233000E60180E0089581E0089510920A0281E0AC
:1023400080930C0210920B0261E082E10E949B06D6
:1023500061E083E10E949B06E9EBF0E080818E7FE3
:10236000808380818D7F808388E48093B80085E4BA
:102370008093BC000895CF93DF9391E09093C501C3
:102380008823B9F0C091B800D091BA008091BC0008
:102390008A7B8093BC0060E082E10E949B0660E043
:1023A00083E10E949B060E949D11D093BA00C093C6
:1023B000B800DF91CF910895E091500280914F02D3
:1023C000E81730F4F0E0E056FE4F808190E0089589
:1023D0008FEF9FEF08959091500280914F022FEF61
:1023E0003FEF981748F4E92FF0E0E056FE4F2081C8
:1023F00030E09F5F90935002C901089580914F0291
:1024000090915002891B990B0895CF92DF92EF9221
:10241000FF920F931F93CF93DF937C01CB018A012F
:1024200020915402222389F0EB016B01C40ED51ECA
:10243000CC15DD0569F06991D701ED91FC91019012
:10244000F081E02DC7010995F3CF642F0E9476112A
:10245000C801DF91CF911F910F91FF90EF90DF9016
:10246000CF900895CF93DF931F92CDB7DEB76983E6
:10247000209154022223F9F020915102203258F089
:1024800021E030E0FC013383228390E080E00F9074
:10249000DF91CF91089580915202E82FF0E0E0584B
:1024A000FE4F998190838F5F8093520280935102F7
:1024B00081E090E0ECCF61E0CE0101960E947611C0
:1024C000F7CFCF92DF92EF92FF920F931F93CF93AC
:1024D000DF93D091510281E0D13208F09CC0C091CD
:1024E00053020E9423086B017C0180910A02811132
:1024F0006CC082E080930A0281E080930C028FEF2F
:102500008093090210922E02D0932D02A0E8B1E030
:10251000EDE0F2E080E0D8138DC010922F028091A0
:102520002F02CC0FC82BC0932F0280910B02813059
:1025300009F084C010920B020E9423086B017C01F9
:1025400080912F028093BB008091C1019091C201C4
:10255000A091C301B091C401892B8A2B8B2BA1F0D0
:102560000E9423080091C1011091C2012091C30172
:102570003091C4016C197D098E099F090617170750
:102580002807390708F442C08091BC0083FDD8CFEA
:1025900085EC8093BC000E9423086B017C01809134
:1025A0000A02823009F44CC0809109028F3F09F47D
:1025B00069C080910902803209F466C080910902E5
:1025C000803309F463C084E026C08091C1019091FA
:1025D000C201A091C301B091C401892B8A2B8B2B1E
:1025E00009F483CF0E9423080091C1011091C20118
:1025F0002091C3013091C4016C197D098E099F0996
:10260000061717072807390708F06FCF8091C00118
:102610000E94BB1185E0109252021092510210925A
:102620005402DF91CF911F910F91FF90EF90DF90B7
:10263000CF9008959D9191938F5F6DCF85EEA9CF37
:102640008091C1019091C201A091C301B091C401D8
:10265000892B8A2B8B2B09F4A2CF0E94230800918F
:10266000C1011091C2012091C3013091C4016C19C4
:102670007D098E099F09061717072807390708F0F3
:102680008ECFC4CF80E0C7CF82E0C5CF83E0C3CF79
:10269000FF920F931F93CF93DF93F82ED92FC62F5E
:1026A00080911B0390911C03009709F452C0209164
:1026B0001F0331E0309354022093530210925202D0
:1026C00010925102DC01ED91FC910190F081E02D1E
:1026D00060E009950F2D1D2FD1E0FF24F394C15028
:1026E00080911B0390911C03CF3F61F1D032C8F061
:1026F0000E94611280911B0390911C0320911F0383
:10270000F0925402209353021092520210925102FE
:10271000DC01ED91FC910190F081E02D60E00995E4
:10272000D1E080911B0390911C03F8016491DC01BE
:10273000ED91FC910190F081E02D0995DF5F0F5F35
:102740001F4FCDCFDF91CF911F910F91FF900C9430
:102750006112E0912B03F0912C0390818091310361
:102760008095892380830F2D1D2FC15008F438C018
:10277000F80184912091190330911A03232B29F039
:102780000E94760B0F5F1F4FF0CF28E030E040E84B
:10279000E0912703F091280390912F03582F5423A1
:1027A000D9F05081952B9083E0912903F0912A0371
:1027B000908150913003952B9083E0912903F09103
:1027C0002A035081909130039095952390834695EC
:1027D00021503109E9F6D6CF508190959523E3CF6A
:1027E000DF91CF911F910F91FF9008951F93CF9389
:1027F000DF93EC018D8D9E8D009721F1162F29A17D
:1028000031E03093540220935302109252021092FE
:102810005102DC01ED91FC910190F081E02D60E02E
:1028200009958D8D9E8DDC01ED91FC910190F081DB
:10283000E02D612F09958D8D9E8DDF91CF911F9198
:102840000C946112ADA5BEA59C918BA9809589239E
:102850008C938B8D9C8D892B31F0862FDF91CF91BE
:102860001F910C94760B28E030E080E8A9A5BAA56A
:1028700099A9462F4823C1F04C91942B9C93ABA56A
:10288000BCA59C914AA9942B9C93ABA5BCA54C914B
:102890009AA9909594239C9386952150310931F7FC
:1028A000DF91CF911F9108954C9190959423E6CF9D
:1028B000EF92FF920F931F93CF93DF9380911B03AF
:1028C00090911C03892B09F493C02091330330911C
:1028D0003403409135035091360360E074E284EF95
:1028E00090E00E946D1D2051310941095109569512
:1028F0004795379527952093B80065E08FE39AE0D8
:102900000E9448136091020361508EEF92E00E9492
:10291000F6132091040330910503C901079697FD32
:10292000079623E0959587952A95E1F72091020374
:1029300030910303829F8001839F100D929F100DA1
:102940001124C0911D03D0911E0380911B0390910F
:102950001C030C0F1D1F009709F489C020911F0351
:1029600031E030935402209353021092520210929D
:102970005102DC01ED91FC910190F081E02D60E4C9
:102980000995FF24F394EE24E39480911B03909126
:102990001C030C171D0709F442C0BFE1BF15D0F49A
:1029A0000E94611280911B0390911C0320911F03D0
:1029B000E09254022093530210925202109251025C
:1029C000DC01ED91FC910190F081E02D60E409952E
:1029D000FF24F39480911B0390911C036991DC0107
:1029E000ED91FC910190F081E02D0995F394CDCF0C
:1029F0008091190390911A03892B31F080913C0347
:102A000090913D030E947D0BE0912D03F0912E03E8
:102A10009081809132038095892380836ECF0E94BC
:102A2000611280911B0390911C03892B09F460C0F3
:102A300020913703309138034091390350913A0384
:102A400060E074E284EF90E00E946D1D2051310936
:102A50004109510956954795379527952093B80018
:102A6000DF91CF911F910F91FF90EF900895E0912A
:102A70002B03F0912C03808190913103892B80836B
:102A80000C171D0771F289912091190330911A03D7
:102A9000232B19F00E94760BF3CF28E030E040E8BA
:102AA000E0912703F091280390912F03582F54238E
:102AB000D9F05081952B9083E0912903F0912A035E
:102AC000908150913003952B9083E0912903F091F0
:102AD0002A035081909130039095952390834695D9
:102AE00021503109E9F6CCCF508190959523E3CF61
:102AF000E0912D03F0912E03808190913203892B78
:102B00008083AECF1F93CF93DF93EC01162F8D8D73
:102B10009E8D892BB1F12DA93EA94FA958AD60E03A
:102B200074E284EF90E00E946D1D2051310941094B
:102B3000510956954795379527952093B80066EA31
:102B4000111167EACE010E94F6138D8D9E8D892B9F
:102B500041F129AD3AAD4BAD5CAD60E074E284EF7C
:102B600090E00E946D1D205131094109510956958F
:102B70004795379527952093B800DF91CF911F9106
:102B800008958B8D9C8D892B21F08EAD9FAD0E9479
:102B90007D0BEFA5F8A990818CA98095892380836E
:102BA000CECFEFA5F8A980819CA9892B8083E5CFA2
:102BB00090E080E008952091040330910503C9015D
:102BC000079697FD079623E0959587952A95E1F757
:102BD0002091020330910303829FA001839F500D37
:102BE000929F500D112470E060E080911D03909140
:102BF0001E030C94F21E0E94ED1EFB0101900020AA
:102C0000E9F73197AF01461B570BDC01ED91FC91C1
:102C10000280F381E02D09940F931F93CF93DF93EC
:102C2000EC010E94FD158C0167E571E0CE010E9468
:102C3000FD15800F911FDF91CF911F910F91089586
:102C400085ED8093BC008091C1019091C201A0915B
:102C5000C301B091C4010796A11DB11D23E0B69533
:102C6000A795979587952A95D1F72091BC0024FDCB
:102C700003C010920A0208954091C1015091C2010F
:102C80006091C3017091C401452B462B472B69F31A
:102C90000097A105B10541F025E32A95F1F7000061
:102CA0000197A109B109E1CF8091C0010C94BB113A
:102CB0001F920F920FB60F9211242F933F934F93B1
:102CC0005F936F937F938F939F93AF93BF93EF9394
:102CD000FF9380913E0290913F02A0914002B091FB
:102CE0004102892B8A2B8B2BD1F190913902E091F3
:102CF0003A02F0913B0280818927808380913E02D5
:102D000090913F02A0914002B0914102181619061D
:102D10001A061B069CF480913E0290913F02A091FE
:102D20004002B09141020197A109B10980933E028E
:102D300090933F02A0934002B0934102FF91EF9124
:102D4000BF91AF919F918F917F916F915F914F91C3
:102D50003F912F910F900FBE0F901F90189580916B
:102D600000010E94F707EACF1F920F920FB60F9251
:102D700011242F933F934F935F936F937F938F9380
:102D80009F93AF93BF93EF93FF9385E592E00E94EB
:102D90000C06FF91EF91BF91AF919F918F917F9121
:102DA0006F915F914F913F912F910F900FBE0F90B8
:102DB0001F9018951F920F920FB60F9211242F9308
:102DC0008F939F93EF93FF93E0916502F0916602DA
:102DD0008081E0916B02F0916C0282FD1BC09081BA
:102DE00080916E028F5F8F7320916F02821741F086
:102DF000E0916E02F0E0EB5AFD4F958F80936E02EA
:102E0000FF91EF919F918F912F910F900FBE0F9097
:102E10001F9018958081F4CF1F920F920FB60F92DA
:102E200011242F933F938F939F93AF93BF938091E0
:102E3000310290913202A0913302B091340230916C
:102E4000300223E0230F2D3758F50196A11DB11D47
:102E5000209330028093310290933202A093330288
:102E6000B09334028091350290913602A0913702DE
:102E7000B09138020196A11DB11D80933502909347
:102E80003602A0933702B0933802BF91AF919F9161
:102E90008F913F912F910F900FBE0F901F9018951B
:102EA00026E8230F0296A11DB11DD2CF1F920F92CB
:102EB0000FB60F9211242F933F934F935F936F930D
:102EC0007F938F939F93AF93BF93EF93FF938091E3
:102ED000B900887F803609F44AC0F0F5883209F4D9
:102EE000A7C018F5803109F49BC0B8F4882309F411
:102EF000F9C0883009F494C0FF91EF91BF91AF9170
:102F00009F918F917F916F915F914F913F912F9101
:102F10000F900FBE0F901F901895883109F488C04C
:102F2000803251F78093090214C0803409F49DC0A7
:102F300040F48033B9F38833F9F68093090285ECC5
:102F4000B0C0803509F485C0883509F496C088344E
:102F500099F60E942016D0CF883909F48CC038F534
:102F6000883729F050F4883611F0803729F683E04D
:102F700080930A021092080257C0883809F47BC077
:102F8000803919F0803809F0B7CF8091080280327B
:102F900008F071C0E091080281E08E0F8093080272
:102FA0008091BB00F0E0E851FE4F80833DC0803B44
:102FB00039F0E0F4803A09F479C0883A09F09CCFFE
:102FC00084E080930A021092E7011092E601E091FA
:102FD0004D02F0914E0209958091E60181110FC0DA
:102FE00081E08093E6011092C60109C0803C09F49B
:102FF000A6CF883C09F4A3CF883B09F07DCFE091B0
:10300000E70181E08E0F8093E701F0E0EA53FE4F85
:1030100080818093BB009091E7018091E60129C0F7
:1030200080912F028093BB0085EC8093BC0064CF1D
:1030300090912E0280912D02981758F5E0912E0262
:1030400081E08E0F80932E02F0E0E35FFD4F8081E0
:10305000E9CFE0912E0281E08E0F80932E028091C5
:10306000BB00F0E0E35FFD4F808390912E028091E2
:103070002D029817C8F285E8D8CFE0912E0281E0A2
:103080008E0F80932E028091BB00F0E0E35FFD4F36
:10309000808380910C0281115CCF81E080930B02D0
:1030A00084EA8093BC0010920A0226CF85EC8093BC
:1030B000BC0010920A0280910802803230F4E09144
:1030C0000802F0E0E851FE4F10826091080270E0C3
:1030D000E0914B02F0914C0288EE91E0099510923C
:1030E00008020ACF1092090234CF0F931F93CF9397
:1030F000DF93E5E5F2E01382128288EE93E0A0E030
:10310000B0E084839583A683B7832BE031E03183DD
:10311000208325EC30E03587248724EC30E03787A6
:10312000268720EC30E0318B208B21EC30E0338B94
:10313000228B22EC30E0358B248B26EC30E0378B71
:10314000268B118E128E138E148E02EF12E0F80170
:103150001382128284839583A683B7838DE191E0E5
:1031600091838083CEE3D3E01B861A86198218826E
:103170001E8A1F8A188E198E86EF97E09F838E8392
:103180008CE090E09D878C878AE090E09F878E8717
:1031900089E090E0998B888B8BE090E09B8B8A8B09
:1031A0008CE00E946C058E850E946C0588890E94C7
:1031B0006C058A890E946C051D8A1C8A84E090E057
:1031C00099878887EEEFF2E01382128220E830E0E0
:1031D0003583248380E290E097838683318720873C
:1031E00093878287168A158614861786168681E04D
:1031F000858B848B2FEF3FEF338B228B318B208B92
:10320000878B108E128E118E8FE291E091838083D6
:10321000148E138E168F058F10A2178E8FEF84A336
:1032200085A386A387A380A780E89AE1A6E0B0E003
:1032300085AB96ABA7ABB0AF80EA96E8A1E0B0E073
:1032400081AF92AFA3AFB4AF80E586AF17AEDF9189
:10325000CF911F910F910895789484B5826084BDB9
:1032600084B5816084BD85B5826085BD85B581608A
:1032700085BD80916E00816080936E001092810008
:1032800080918100826080938100809181008160C3
:103290008093810080918000816080938000809184
:1032A000B10084608093B1008091B0008160809310
:1032B000B00080917A00846080937A0080917A00D7
:1032C000826080937A0080917A00816080937A0096
:1032D00080917A00806880937A001092C10088E023
:1032E0000E946C0580910001883009F4AEC08F3FC8
:1032F00009F4C1C060E971E080E090E00E94ED084F
:1033000088E00E94F707E0916502F091660282E092
:103310008083E0916102F09162021082E091630289
:10332000F09164028FEC808310926D02E09169024B
:10333000F0916A0286E08083E0916702F091680272
:10334000808180618083E0916702F09168028081D2
:1033500088608083E0916702F091680280818068D4
:103360008083E0916702F091680280818F7D808385
:103370006AE571E085E592E00E940C162091440315
:1033800030914503032E000C440B550B60E077E8A9
:1033900083E993E00E948F1DCA01B90120E130E06A
:1033A00040E050E00E948F1D209340033093410382
:1033B000409342035093430365E671E085E592E054
:1033C0000E940C168DEF91E00E94480860E273E0C5
:1033D00080E090E00E94ED086BE671E085E592E008
:1033E0000E940C1685E09CEF0E94480860E273E0A2
:1033F00080E090E00E94ED0880911D0390911E03F3
:10340000892B09F4F6C00E94DB152091040330914A
:1034100005038091020390910303213231050CF0E2
:1034200043C1B9016052710977FF02C06F5F7F4FDE
:10343000759567958357910997FD019600E210E015
:1034400023E730E04FE955E042C1ECE8F5E0C491F4
:10345000C7FD50CF88E00E946C05CC2309F479C0E9
:10346000C23009F08DC08091B100887F8460809364
:10347000B1008BE9ABC088E080930001ECE8F5E097
:10348000C491CF3F09F436CFC13019F148F0C230B2
:1034900009F43DC0C7FD2ECF88E00E946C05E0CF47
:1034A00014BC15BC84B5826084BD85B5816085BDC2
:1034B000E0E6FAE0E491F0E0EE0FFF1FEC5BF54F81
:1034C00085919491E4E7FAE0E491E0933D02C0E055
:1034D000C1CF10928000109281008091810088609D
:1034E0008093810080918100816080938100E0E67B
:1034F000FAE0E491F0E0EE0FFF1FEC5BF54F8591F1
:103500009491E4E7FAE0E491E0933C02A3CF1092B7
:10351000B0001092B1008091B00082608093B00042
:103520008091B10081608093B100E0E6FAE0E4911F
:10353000F0E0EE0FFF1FEC5BF54F859194919093B7
:103540003B0280933A02E4E7FAE0E491E093390227
:1035500081CF85B5887F836085BD8BE987BD8FEF7F
:103560009FEFDC018093460290934702A0934802AC
:10357000B093490280916E00826080936E00BACE53
:10358000C130E9F480918100887F8160809381005F
:103590008FE097E290938900809388008FEF9FEFF0
:1035A000DC018093420290934302A0934402B093C3
:1035B000450280916F00826080936F009BCEC23085
:1035C00021F0C11197CE8FE0C9CF8FE08093B30077
:1035D0008FEF9FEFDC0180933E0290933F02A09318
:1035E0004002B0934102809170008260809370002D
:1035F00081CE2091040330910503C901079697FD00
:103600000796B3E095958795BA95E1F72091020367
:1036100030910303AC01429FC001439F900D529F24
:10362000900D11240E94C81D90931E0380931D03CA
:10363000892B09F0E8CE0E94DB1583E290E090939D
:103640000B0380930A0384E190E090930D03809331
:103650000C0381E090E0909311038093100390930A
:103660000F0380930E03809312038093130363E789
:1036700071E08EEF92E00E940C160E94581468EEE2
:1036800073E080E090E00E94ED080E94DB150E944C
:103690005814C0E0D0E02097F1F30E94F805882389
:1036A000D1F30E940000F7CFB9016054710977FF90
:1036B00002C06F5F7F4F759567958255910997FDA1
:1036C000019600E410E022E530E04FE757E09595E1
:1036D00087950E9467108CE38093200380911B03E1
:1036E00090911C03892B09F4E7C080910403909109
:1036F0000503809709F4DEC08DE380931F031092C9
:10370000500210924F0210925202109251020E94E7
:103710009D118CE895E090934E0280934D028DE8C8
:1037200095E090934C0280934B028091260387FD95
:103730001DC00E946C0561E0809126030E949B06DB
:1037400061E070E080E090E00E94ED0860E0809130
:1037500026030E949B066AE070E080E090E00E94F1
:10376000ED0861E0809126030E949B0680911B0377
:1037700090911C03892B09F456C120913303309199
:103780003403409135035091360360E074E284EFD6
:1037900090E00E946D1D2051310941095109569553
:1037A0004795379527952093B80064E08BE995E01D
:1037B0000E9448136091040361508EEF92E00E94D2
:1037C000F61364E087E995E00E9448138091200396
:1037D00064E1813009F460E18EEF92E00E94F6131B
:1037E00064E083E995E00E9448138FE880933B03EF
:1037F00080910203909103038038910509F02CC158
:1038000080910403909105038034910509F034C13F
:1038100080912003813009F41DC18FEC80933B031C
:10382000C2E16AED8EEF92E00E94F6136C2F8EEFEC
:1038300092E00E94F61361E88EEF92E00E94F61388
:1038400060913B038EEF92E00E94F61369ED8EEFDC
:1038500092E00E94F6138091200361EF813009F419
:1038600062E28EEF92E00E94F61366E08DE895E04A
:103870000E94481380911B0390911C03892B09F42B
:10388000FFC02091370330913803409139035091A4
:103890003A0360E074E284EF90E00E946D1D2051D5
:1038A0003109410951095695479537952795209338
:1038B000B800C1CE8CE321CF809124030E946C0517
:1038C000809125030E946C0580912403082E000C32
:1038D000990BFC01E85AF54FE491F0E0EE0FFF1F61
:1038E000EC5BF54F2591349130932C0320932B03FF
:1038F000FC01E459F54FE491E093310380912503F5
:10390000082E000C990BFC01E85AF54FE491F0E009
:10391000EE0FFF1FEC5BF54FA591B491B0932E0312
:10392000A0932D03FC01E459F54FE491E093320399
:103930008C91E82BEC938091190390911A03892BB9
:1039400089F1CFB7F89480914A02811124C0E2E650
:10395000FAE08491E6E7FAE09491E82FF0E0EE0FC8
:10396000FF1FE25BF54FA591B491EC91E92321F49F
:1039700061E08AE00E949B068AE00E946C058CB59B
:1039800080618CBD8CB580648CBD8DE00E946C051F
:103990008BE00E946C0580914A028F5F80934A02FF
:1039A000CFBFC3CE809122030E946C058091230378
:1039B0000E946C0580912203082E000C990BFC01DB
:1039C000E85AF54FE491F0E0EE0FFF1FEC5BF54F86
:1039D000259134913093280320932703FC01E45967
:1039E000F54FE491E0932F0380912303082E000C00
:1039F000990BFC01E85AF54FE491F0E0EE0FFF1F40
:103A0000EC5BF54FA591B491B0932A03A0932903E1
:103A1000FC01E459F54FE491E09330038C91E0957B
:103A2000E823EC9382CE8091190390911A03892B9D
:103A300031F080913C0390913D030E947D0BE09119
:103A40002D03F0912E03908180913203809589237C
:103A50008083ABCE8FE9E2CE8036910569F4809108
:103A6000040390910503409739F48091200381303D
:103A700029F08FEA80933B03C2E0D3CE80E1FACFF6
:103A8000E0912D03F0912E03808190913203892BD8
:103A90008083D1CD8FE291E09093FF028093FE026C
:103AA00080911D0390911E03009711F00C94641EE9
:103AB000089597FB072E16F4009407D077FD09D0E0
:103AC0000E94B41D07FC05D03EF4909581959F4F50
:103AD0000895709561957F4F0895A1E21A2EAA1B53
:103AE000BB1BFD010DC0AA1FBB1FEE1FFF1FA217AE
:103AF000B307E407F50720F0A21BB30BE40BF50BAB
:103B0000661F771F881F991F1A9469F76095709533
:103B1000809590959B01AC01BD01CF010895052EC4
:103B200097FB1EF400940E94A61D57FD07D00E942B
:103B30006D1D07FC03D04EF40C94A61D50954095C6
:103B4000309521953F4F4F4F5F4F08959095809549
:103B5000709561957F4F8F4F9F4F0895EE0FFF1F18
:103B60000590F491E02D0994AA1BBB1B51E107C0FD
:103B7000AA1FBB1FA617B70710F0A61BB70B881FFD
:103B8000991F5A95A9F780959095BC01CD0108958C
:103B90000F931F93CF93DF938230910510F482E04F
:103BA00090E0E0915A03F0915B0330E020E0B0E058
:103BB000A0E0309799F42115310509F44AC0281B7B
:103BC000390B24303105D8F58A819B816115710547
:103BD00089F1FB0193838283FE0111C040815181F1
:103BE0000281138148175907E0F04817590799F4E3
:103BF000109761F012960C93129713961C933296BD
:103C0000CF01DF91CF911F910F91089500935A0337
:103C100010935B03F4CF2115310551F04217530780
:103C200038F0A901DB019A01BD01DF01F801C1CF24
:103C3000EF01F9CF90935B0380935A03CDCFFE0140
:103C4000E20FF31F81939193225031093983288326
:103C5000D7CF2091580330915903232B41F4209161
:103C600003013091040130935903209358032091AC
:103C70000101309102012115310541F42DB73EB704
:103C80004091050150910601241B350BE09158032A
:103C9000F0915903E217F307A0F42E1B3F0B2817EE
:103CA000390778F0AC014E5F5F4F2417350748F0B5
:103CB0004E0F5F1F50935903409358038193919384
:103CC0009FCFF0E0E0E09CCFCF93DF930097E9F047
:103CD000FC01329713821282A0915A03B0915B03C8
:103CE000ED0130E020E01097A1F420813181820FB6
:103CF000931F20915803309159032817390709F071
:103D000061C0F0935903E0935803DF91CF91089578
:103D1000EA01CE17DF07E8F54A815B819E01411574
:103D20005105B1F7E901FB83EA8349915991C40F29
:103D3000D51FEC17FD0761F4808191810296840FF5
:103D4000951FE90199838883828193819B838A836C
:103D5000F0E0E0E012968D919C9113970097B9F5F1
:103D60002D913C911197CD010296820F931F2091C6
:103D70005803309159032817390739F6309751F510
:103D800010925B0310925A03B0935903A093580307
:103D9000BCCFD383C28340815181840F951FC81744
:103DA000D90761F44E5F5F4F88819981480F591F91
:103DB000518340838A819B819383828321153105BE
:103DC00009F0B0CFF0935B03E0935A039ECFFD015F
:103DD000DC01C0CF13821282D7CF81E090E0F8944B
:103DE0000C94F91EDC0101C06D9341505040E0F786
:103DF000089515E0C1E4D5E004C0FE010E94AE1DA7
:0C3E00002196C234D107C9F7F894FFCF17
:103E0C00FF00005C038000000000002E068E05BB46
:103E1C00057B06EC05CA05DE050000000032120524
:103E2C0012D8158B05FE11EB11DC1100000000BB44
:103E3C000D8E05D8157511C60A8B056010381054F7
:103E4C00104810C8108B05810B8215360A7F0A8129
:103E5C000F640FEC0E8D0E0D0A0048656C6C6F2014
:103E6C004D445421004357203930004343572031EF
:103E7C0038300048656C6C6F20576F726C640000B2
:107E0000112484B714BE81FFF0D085E080938100F7
:107E100082E08093C00088E18093C10086E0809377
:107E2000C20080E18093C4008EE0C9D0259A86E02C
:107E300020E33CEF91E0309385002093840096BBD3
:107E4000B09BFECF1D9AA8958150A9F7CC24DD24C4
:107E500088248394B5E0AB2EA1E19A2EF3E0BF2EE7
:107E6000A2D0813461F49FD0082FAFD0023811F036
:107E7000013811F484E001C083E08DD089C08234E0
:107E800011F484E103C0853419F485E0A6D080C0E4
:107E9000853579F488D0E82EFF2485D0082F10E0AE
:107EA000102F00270E291F29000F111F8ED06801E7
:107EB0006FC0863521F484E090D080E0DECF843638
:107EC00009F040C070D06FD0082F6DD080E0C81688
:107ED00080E7D80618F4F601B7BEE895C0E0D1E017
:107EE00062D089930C17E1F7F0E0CF16F0E7DF06D8
:107EF00018F0F601B7BEE89568D007B600FCFDCFD4
:107F0000A601A0E0B1E02C9130E011968C91119780
:107F100090E0982F8827822B932B1296FA010C0160
:107F200087BEE89511244E5F5F4FF1E0A038BF0790
:107F300051F7F601A7BEE89507B600FCFDCF97BE46
:107F4000E89526C08437B1F42ED02DD0F82E2BD052
:107F50003CD0F601EF2C8F010F5F1F4F84911BD097
:107F6000EA94F801C1F70894C11CD11CFA94CF0C13
:107F7000D11C0EC0853739F428D08EE10CD085E9AC
:107F80000AD08FE07ACF813511F488E018D01DD067
:107F900080E101D065CF982F8091C00085FFFCCF94
:107FA0009093C60008958091C00087FFFCCF809118
:107FB000C00084FD01C0A8958091C6000895E0E648
:107FC000F0E098E1908380830895EDDF803219F02E
:107FD00088E0F5DFFFCF84E1DECF1F93182FE3DFCA
:107FE0001150E9F7F2DF1F91089580E0E8DFEE27F6
:047FF000FF270994CA
:027FFE00040479
:0400000300007E007B
:00000001FF
