:100000000C9447050C946F050C946F050C946F05C8
:100010000C946F050C946F050C946F050C947D1770
:100020000C946F050C946F050C946F050C946F0580
:100030000C946F050C946F050C946F050C946F0570
:100040000C9431180C946F050C94FF170C94D9176D
:100050000C946F050C946F050C946F050C946F0550
:100060000C947B180C946F0500000000003E5B4F61
:100070005B3E3E6B4F6B3E1C3E7C3E1C183C7E3C08
:10008000181C577D571C1C5E7F5E1C00183C180016
:10009000FFE7C3E7FF0018241800FFE7DBE7FF30A6
:1000A000483A060E2629792926407F050507407F14
:1000B00005253F5A3CE73C5A7F3E1C1C08081C1C87
:1000C0003E7F14227F22145F5F005F5F06097F017D
:1000D0007F006689956A606060606094A2FFA29468
:1000E00008047E040810207E201008082A1C080836
:1000F0001C2A08081E101010100C1E0C1E0C303884
:100100003E3830060E3E0E06000000000000005F84
:1001100000000007000700147F147F14242A7F2AA0
:100120001223130864623649562050000807030062
:10013000001C2241000041221C002A1C7F1C2A08AE
:10014000083E080800807030000808080808000011
:1001500060600020100804023E5149453E00427F85
:10016000400072494949462141494D331814127FD4
:100170001027454545393C4A494931412111090774
:100180003649494936464949291E000014000000F5
:1001900040340000000814224114141414140041C7
:1001A00022140802015909063E415D594E7C121184
:1001B000127C7F494949363E414141227F414141BC
:1001C0003E7F494949417F090909013E4141517337
:1001D0007F0808087F00417F41002040413F017FA8
:1001E000081422417F404040407F021C027F7F0470
:1001F00008107F3E4141413E7F090909063E4151B9
:10020000215E7F09192946264949493203017F01A8
:10021000033F4040403F1F2040201F3F4038403FA9
:10022000631408146303047804036159494D4300BF
:100230007F4141410204081020004141417F0402F6
:10024000010204404040404000030708002054548D
:1002500078407F284444383844444428384444286B
:100260007F385454541800087E090218A4A49C78BE
:100270007F0804047800447D40002040403D007F1A
:100280001028440000417F40007C047804787C08FA
:100290000404783844444438FC18242418182424CE
:1002A00018FC7C08040408485454542404043F44B3
:1002B000243C4040207C1C2040201C3C4030403CE2
:1002C00044281028444C9090907C4464544C440042
:1002D00008364100000077000000413608000201A6
:1002E0000204023C2623263C1EA1A161123A404092
:1002F000207A38545455592155557941225454780F
:1003000042215554784020545579400C1E527212A7
:100310003955555559395454545939555454580030
:1003200000457C410002457D420001457C407D1234
:1003300011127DF0282528F07C5455450020545496
:100340007C547C0A097F4932494949323A44444441
:100350003A324A4848303A4141217A3A424020787C
:10036000009DA0A07D3D4242423D3D4040403D3C7D
:1003700024FF2424487E4943662B2FFC2F2BFF09A2
:1003800029F620C0887E0903205454794100004496
:100390007D413048484A32384040227A007A0A0A81
:1003A000727D0D19317D2629292F282629292926F4
:1003B00030484D4020380808080808080808382F39
:1003C00010C8ACBA2F102834FA00007B00000814C3
:1003D0002A142222142A14085500550055AA55AA99
:1003E00055AAFF55FF55FF000000FF00101010FF39
:1003F00000141414FF001010FF00FF1010F010F094
:10040000141414FC001414F700FF0000FF00FF1484
:1004100014F404FC141417101F10101F101F1414D0
:10042000141F00101010F0000000001F101010101A
:100430001F10101010F010000000FF10101010100E
:1004400010101010FF10000000FF140000FF00FF4C
:1004500000001F10170000FC04F4141417101714E8
:1004600014F404F40000FF00F7141414141414140A
:10047000F700F7141414171410101F101F1414147D
:10048000F4141010F010F000001F101F0000001FE7
:1004900014000000FC140000F010F01010FF10FF1A
:1004A000141414FF141010101F00000000F010FFAF
:1004B000FFFFFFFFF0F0F0F0F0FFFFFF0000000093
:1004C00000FFFF0F0F0F0F0F3844443844FC4A4A17
:1004D0004A347E02020606027E027E0263554941CC
:1004E000633844443C04407E201E2006027E020203
:1004F00099A5E7A5991C2A492A1C4C7201724C3017
:100500004A4D4D303048784830BC625A463D3E49ED
:100510004949007E0101017E2A2A2A2A2A44445F91
:10052000444440514A444040444A51400000FF0185
:1005300003E080FF000008086B6B08361236243693
:10054000060F090F060000181800000010100030F8
:1005500040FF0101001F01011E00191D1712003C80
:100560003C3C3C0000000000000103070F1F3F7FE0
:100570000080C0E0F0F8FCFE00000000240027002E
:100580002A00DB40A4A62EAF2000A1C8D300408DD6
:10059000AED580A800006000000000000000000050
:1005A0000000000000E0000000000000000000006B
:1005B00000000001E000000000000000000000005A
:1005C000000001F00000000000000000000000003A
:1005D0000003F00000000000000000000000000028
:1005E00007F000000000000000000000000000070D
:1005F000F8000000000000000000000000000FF8FC
:1006000000000003C0007E000001E0007F0FF80042
:10061000000003C000FE000001E000FFEFF8000052
:100620000003C000FE000001E000FFFFF800000032
:1006300003C000F00000000F007FFE7FC000000339
:10064000C000F00000000F003FFE7FF83FF1FBCF3D
:10065000FCFEF3BC3DEFE01FFE7FFF7FFBFFDFFEF4
:10066000FEFFBC3DEFE01FC6FFFF7FFBFFDFFEFE8E
:10067000FFBC3DEFE00FE3C7FE787BC3DE1EF0FF5B
:10068000BC3DEF0007FF87FC787BC3DE1EF0F83C23
:100690003DEF0001FFFFF0007BC3C01EF0F03C3DCA
:1006A000EF0001F37FE03FFBC3CFFEF0F03C3DEFF6
:1006B0000003E33F807FFBC3DFFEF0F03C3DEF0033
:1006C00007E73C00787BC3DE1EF0F03C3DEF0007FF
:1006D000FFBE00787BC3DE1EF0F03C3DEF0007FF5D
:1006E000FE00787BC3DE1EF0F03C3DEF000FFFFE06
:1006F000007FFBFFDFFEF0F03FFDEFE00FFFFF00AC
:100700007FFBFFDFFEF0F03FFDEFE00FF9FF003E63
:1007100079F9CF9EF0F01F3DE7E01FF1FF000000E8
:100720000000000000000000001F80FF007FFFFFAE
:10073000FFFFFFFFFFFFFFE01C007F007FFFFFFFC9
:10074000FEB46D888D18E000001F007FFFFFFFFEE4
:1007500095AD7DB577E000000F007FFFFFFFFEA5A0
:10076000AD9D8D19E0000006007FFFFFFFFEB5ADD7
:10077000EDB57EE0000000000001800000000000F8
:1007800000000000038000000000000000000007DF
:10079000C000000000000000000007C000000000D2
:1007A00000000000000FC00000000000000000007A
:1007B0001FE00000000000000000001FE00000003B
:1007C0000000000000003FE000000000000000000A
:1007D000003FF00000000000000000007FF000007B
:1007E00000000000001FF87FF00000000000000083
:1007F0003FFE7FF0000000000000003FFF7FF000A0
:100800000000000000001FFFFBE0000000000000EF
:10081000000FFFF9FFC00000000000000FFFF9FF0C
:10082000F800000000000007FFF1FFFF00000000DB
:10083000000003FC73FFFF80000000000001FE3F8A
:10084000FFFF80000000000000FF1E0FFF000000FF
:10085000000000007FFE1FFC000000000000003FC1
:10086000FFFFF8000000000000000FDFFFE00000C5
:1008700000000000001F19FFC00000000000000081
:100880003F3CFF00000000000000007E7CF80000FC
:100890000000000000007FFE7C000000000000005F
:1008A00000FFFFFC0000000000000000FFFFFE0052
:1008B00000000000000000FFFFFE0000000000003C
:1008C0000001FFEFFE0000000000000001FFCFFE6E
:1008D0000000000000000003FF07FE000000000011
:1008E000000003FC07FE0000000000000003F0030E
:1008F000FE00000000000000018000FE000000007B
:100900000000000000007E00000000000000000069
:10091000003E000000000000000000000C0000008D
:10092000000000078000FC000003C00000000780FA
:1009300001FC000003C0000000078001FC00000370
:10094000C0000000078001E00000001E000000075A
:100950008001E00000001E007FE3F79FF9FDE778CB
:100960007BDFC0FFF7FFBFFDFDFF787BDFC0FFF738
:10097000FFBFFDFDFF787BDFC0F0F787BC3DE1FFE7
:10098000787BDE00F0F787BC3DE1F0787BDE00008D
:10099000F787803DE1E0787BDE007FF7879FFDE110
:1009A000E0787BDE00FFF787BFFDE1E0787BDE00CB
:1009B000F0F787BC3DE1E0787BDE00F0F787BC3DD7
:1009C000E1E0787BDE00F0F787BC3DE1E0787BDE9C
:1009D00000FFF7FFBFFDE1E07FFBDFC0FFF7FFBFD8
:1009E000FDE1E07FFBDFC07CF3F39F3DE1E03E7B78
:1009F000CFC00000000000000000000000FFFFFF6B
:100A0000FFFFFFFFFFFFFFC0FFFFFFFFFD68DB11E0
:100A10001A31C0FFFFFFFFFD2B5AFB6AEFC0FFFF3B
:100A2000FFFFFD4B5B3B1A33C0FFFFFFFFFD6B5B1E
:100A3000DB6AFDC000000000230026002900000042
:100A4000000800020100000304070000000000008D
:100A500000002200FF210001020408102040800154
:100A600002040810200102040810200000000025E4
:100A70000028002B000404040404040404020202FD
:100A8000020202030303030303029A19F61D112451
:100A90001FBECFEFD8E0DEBFCDBF11E0A0E0B1E0D8
:100AA000E4E6FFE302C005900D92A637B107D9F73F
:100AB00023E0A6E7B1E001C01D92A235B207E1F73D
:100AC00015E0C6E4D5E004C02197FE010E945A1E3D
:100AD000C534D107C9F70E94551A0C94A51F0C9470
:100AE0000000089508950895AF92BF92CF92DF92CB
:100AF000EF92FF920F931F93CF93DF936C017B01D3
:100B00008B01040F151FEB015E01AE18BF08C01763
:100B1000D10759F06991D601ED91FC910190F081D6
:100B2000E02DC6010995892B79F7C501DF91CF9199
:100B30001F910F91FF90EF90DF90CF90BF90AF90FB
:100B40000895FC01538D448D252F30E0842F90E0D3
:100B5000821B930B541710F0CF96089501970895B8
:100B6000FC01918D828D981761F0A28DAE0FBF2F81
:100B7000B11D5D968C91928D9F5F9F73928F90E0D7
:100B800008958FEF9FEF0895FC01918D828D981746
:100B900031F0828DE80FF11D858D90E008958FEF83
:100BA0009FEF0895FC01918D228D892F90E0805C4C
:100BB0009F4F821B91098F73992708958BE492E0D0
:100BC0000E94D20521E0892B09F420E0822F0895AC
:100BD00080E090E0892B29F00E94DE0581110C94C1
:100BE00000000895FC01A48DA80FB92FB11DA35AD0
:100BF000BF4F2C91848D90E001968F739927848F3D
:100C0000A689B7892C93A089B1898C91837080645F
:100C10008C93938D848D981306C00288F389E02D00
:100C200080818F7D80830895EF92FF920F931F93B1
:100C3000CF93DF93EC0181E0888F9B8D8C8D98138F
:100C40001AC0E889F989808185FF15C09FB7F8949B
:100C5000EE89FF896083E889F989808183708064E7
:100C600080839FBF81E090E0DF91CF911F910F9132
:100C7000FF90EF900895F62E0B8D10E00F5F1F4F41
:100C80000F731127E02E8C8D8E110CC00FB607FC50
:100C9000FACFE889F989808185FFF5CFCE010E94DE
:100CA000F205F1CFEB8DEC0FFD2FF11DE35AFF4F55
:100CB000F0829FB7F8940B8FEA89FB89808180626C
:100CC000CFCFCF93DF93EC01888D8823B9F0AA8929
:100CD000BB89E889F9898C9185FD03C0808186FDF7
:100CE0000DC00FB607FCF7CF8C9185FFF2CF808146
:100CF00085FFEDCFCE010E94F205E9CFDF91CF91C4
:100D00000895833081F028F4813099F08230A9F081
:100D100008958730A9F08830C9F08430B1F480910B
:100D200080008F7D03C0809180008F77809380004A
:100D3000089584B58F7784BD089584B58F7DFBCFEA
:100D40008091B0008F778093B00008958091B000BB
:100D50008F7DF9CF1F93CF93DF93282F30E0F901D8
:100D6000E25CF54F8491F901E95AF54FD491F9010C
:100D7000EB58F54FC491CC23A9F0162F81110E9496
:100D80008106EC2FF0E0EE0FFF1FE559F54FA5911E
:100D9000B4918FB7F894EC91111108C0D095DE236F
:100DA000DC938FBFDF91CF911F910895DE2BF8CF99
:100DB000CF93DF93EC0180913C0390913D03029728
:100DC00049F4C130D10509F43BC06CF560E02097CF
:100DD00009F437C080913C0390913D03049749F496
:100DE000C130D10509F45CC00CF037C0209709F47C
:100DF00042C080913C0390913D03059709F0E5C006
:100E0000CA30D10508F0E1C0FE01E75FF84F0C944D
:100E10005A1E6807740785079B07B607B807BF0700
:100E2000CB07DC07E307C230D105A9F060E0C3308F
:100E3000D10581F6809140030E94AA0660E006C0B9
:100E400061E0809140030E94AA0661E08091420324
:100E50000E94AA06BFCF61E0EDCFC230D10539F1C3
:100E6000C330D10509F0C5CF61E0809140030E94F5
:100E7000AA0660E022C061E0809140030E94AA06B9
:100E800060E0809142030E94AA0661E080914403E1
:100E90000E94AA0660E0809146030E94AA06A9CF9C
:100EA00060E0809140030E94AA0661E0EACF60E022
:100EB000809140030E94AA0661E0809142030E9453
:100EC000AA0660E0809144030E94AA0661E0E3CF95
:100ED00060E0809140030E94AA0661E08091420395
:100EE0000E94AA0661E00BC060E0809140030E946E
:100EF000AA0661E0809142030E94AA0660E0809108
:100F000044030E94AA0660E010C060E080914003A4
:100F10000E94AA0661E0809142030E94AA0660E056
:100F2000809144030E94AA0661E0809146030E94DA
:100F3000AA0661E015C060E0809140030E94AA0605
:100F400061E0809142030E94AA0660E08091440320
:100F50000E94AA0661E0809146030E94AA0660E012
:100F600080914803DF91CF910C94AA0661E0E4CF11
:100F700061E0809140030E94AA0660E0E2CF61E058
:100F8000809140030E94AA0660E0809142030E9483
:100F9000AA0661E0DBCF61E0809140030E94AA06CF
:100FA00060E0809142030E94AA0661E080914403C0
:100FB0000E94AA0660E0CFCF61E0809140030E94CA
:100FC000AA0660E08BCF60E0F8CFDF91CF91089563
:100FD0009091020189130BC0E9E8FAE0E4919FEFD8
:100FE00090930201E13049F028F0E23061F060E0D6
:100FF0000C94AA0610926E00FACF90916F009D7F1C
:1010000090936F00F4CF909170009D7F909370004B
:1010100091E09093B0009091B100987F946090938C
:10102000B1001092B300E3CFCF93DF9390E0FC01C7
:10103000E95AF54F24918B58954FFC0184918823F0
:10104000D1F090E0880F991FFC01E858FA4FA59164
:10105000B491FC01E559F54FC591D491623071F41A
:101060009FB7F8943C91822F809583238C93E881DD
:101070002E2B28839FBFDF91CF9108958FB7F894CF
:10108000EC912E2B2C938FBFF6CF0F931F93CF9302
:101090008C0180910201883039F08F3F09F444C0FF
:1010A000CF911F910F910895E9E8FAE0C491C7FD2F
:1010B000F7CF61E088E00E941408CC2319F0C23019
:1010C00009F0A1C0980150E040E068E478EE81E0CA
:1010D00090E00E943B1EBA01A901415051096109EB
:1010E0007109CC2309F4CFC08091B100887F84605E
:1010F0008093B100C13009F49EC0C23009F4B0C081
:10110000C111CECF47BD8FEF9FEFDC018093470227
:1011100090934802A0934902B0934A0280916E00D6
:10112000826080936E00BCCF88E080930201E9E882
:10113000FAE0C491CF3F09F4B3CFC13021F150F0B0
:10114000C23009F43EC0C7FDABCF61E088E00E9429
:101150001408B5CF14BC15BC84B5826084BD85B5B8
:10116000816085BDEDE7FAE0E491F0E0EE0FFF1F4E
:10117000E559F54F85919491EFE5FAE0E491E0931C
:101180003E02C0E096CF10928000109281008091C4
:1011900081008860809381008091810081608093CC
:1011A0008100EDE7FAE0E491F0E0EE0FFF1FE55972
:1011B000F54F85919491EFE5FAE0E491E0933D02DB
:1011C00078CF1092B0001092B1008091B000826090
:1011D0008093B0008091B10081608093B100EDE711
:1011E000FAE0E491F0E0EE0FFF1FE559F54F85912D
:1011F000949190933C0280933B02EFE5FAE0E491F6
:10120000E0933A0256CF980150E040E060E072E18E
:101210008AE790E00E943B1EBA01A90141505109A2
:1012200061097109C13009F065CF80918100887F23
:1012300081608093810050938900409388008FEFF4
:101240009FEFDC018093430290934402A0934502F8
:10125000B093460280916F00826080936F0020CF30
:101260004093B3008FEF9FEFDC0180933F02909398
:101270004002A0934102B0934202809170008260CC
:10128000809370000DCF85B5887F836085BD3ACF90
:101290003FB7F89480912B0290912C02A0912D02DF
:1012A000B0912E0226B5A89B05C02F3F19F00196DC
:1012B000A11DB11D3FBFBA2FA92F982F8827BC01B0
:1012C000CD01620F711D811D911D42E0660F771FD8
:1012D000881F991F4A95D1F708954F925F926F9298
:1012E0007F928F929F92AF92BF92EF92FF920F9355
:1012F0001F93CF93DF93EC0197FF04C0CC27DD272A
:10130000C81BD90B181619060CF061C081E090E0DB
:10131000909335038093340304E010E08AE0E82ED4
:10132000F12C209709F46FC00E94480980904A036D
:1013300090904B03A0904C03B0904D032B013C01C7
:10134000481859086A087B08809036039090370344
:10135000A0903803B0903903481459046A047B0400
:1013600000F360934A0370934B0380934C03909374
:101370004D0380913E0390913F03209134033091BF
:1013800035032130310559F5019690933F03809341
:101390003E0320913A0330913B038217930721F4D7
:1013A00010923F0310923E03219780913E0390914B
:1013B0003F0320913C0330913D03B70125303105B7
:1013C00009F0B8010E94051E0E94D806AACF892BF9
:1013D00009F4A2CF10923503109234039DCF892BCC
:1013E00041F480913A0390913B0390933F038093A3
:1013F0003E0380913E0390913F03019790933F03FA
:1014000080933E03D1CFDF91CF911F910F91FF9039
:10141000EF90BF90AF909F908F907F906F905F9074
:101420004F9008958F929F92AF92BF92CF92DF928A
:10143000EF92FF924B015C010E9448096B017C0115
:101440000E9448096C197D098E099F09683E734006
:1014500081059105A8F321E0821A9108A108B1083D
:1014600088EEC80E83E0D81EE11CF11C81149104A3
:10147000A104B10429F7FF90EF90DF90CF90BF90C7
:10148000AF909F908F900895EF92FF920F931F93CC
:10149000CF93DF93EC01EC80FD806E157F050CF09F
:1014A00070C057FF04C0240F351F50E040E08E810C
:1014B0009F81FA01E20FF31F8E179F071CF49C0116
:1014C000241B350B121613060CF05BC0922F842FD1
:1014D0008695869586958E9DD0018F9DB00D1124A1
:1014E0006A0F7B1FAF8DB8A1A60FB71F477049F1D8
:1014F00088E0841B482F682F70E0FB01E059FA4F09
:10150000E491281708F063C0621B71092FEF30E0E7
:1015100002C0359527956A95E2F7E223013011055F
:1015200039F0B0F10230110561F58C91E82702C065
:101530008C91E82BEC93941720F12C813D81A20F24
:10154000B31FE92FE41BE83078F00230110521F5D4
:101550008E2F9C9190959C932C813D81A20FB31F5F
:1015600088508830B0F7E770EE2359F0F0E0E85982
:10157000FA4FE49101301105F9F010F10230110534
:1015800019F1DF91CF911F910F91FF90EF90089586
:10159000E0958C91E823CECF81E00115110509F487
:1015A00080E081959E2F8C932C813D81A20FB31FEB
:1015B00098509830C0F7D7CF8C91E82BEC93E1CFBF
:1015C000E0958C91E823FACF8C91E827F7CF013092
:1015D000110509F4ADCFE0F20230110509F4A5CFF1
:1015E000AE0DBF1DAECF0F931F93CF93DF9377FF49
:1015F00004C0260F371F70E060E0DC011496CD9127
:10160000DC91FB01E20FF31FCE17DF071CF49E01F4
:10161000261B370B121613064CF5FA0157FD3796A9
:10162000A3E0F595E795AA95E1F7EC9FD001ED9F32
:10163000B00DFC9FB00D11246A0F7B1FDC015F967B
:10164000ED91FC91E60FF71F4770552781E090E080
:1016500001C0880F4A95EAF7482F0130110559F06B
:10166000A8F02E0F3F1F02301105E1F0DF91CF915E
:101670001F910F9108952E0F3F1FE217F307B1F34B
:101680008191DF011197842B8C93F7CF80952E0FDA
:101690003F1FE217F30751F39191DF011197982350
:1016A0009C93F7CFE217F30709F38191DF011197BC
:1016B00084278C93F7CF0F931F93FA01DC01569682
:1016C0004C9156974230E9F04330A1F1413061F539
:1016D00014964D915C91DA01AE1BBF0BFD01E21B2C
:1016E000F30B77FD0BC0DC0116964D915C916417EE
:1016F000750724F4AB01BF010E94F30A1F910F91FB
:10170000089514964D915C91DA01A61BB70BBD01AB
:1017100061507109DC0116964D915C91DA01AE1BA6
:10172000BF0BFD01E21BF30B77FDE8CFAF010E9479
:10173000440AE4CF16964D915C91DA01A61BB70BD3
:10174000BD0161507109CDCF0F931F93FA01DC01E8
:1017500056964C9156974230A9F0433091F1413062
:1017600019F514964D915C91DA01AE1BBF0BFD018A
:101770003197F7FD04C0AB01BF010E94440A1F91DD
:101780000F91089514964D915C91DA01A61BB70B49
:10179000BD01DC0116964D915C91DA01AE1BBF0BC9
:1017A000FD013197621B730BF7FDE9CFDC01169643
:1017B0004D915C91E417F50714F7AF010E94F30A0D
:1017C000DECF16964D915C91DA01A61BB70BBD01D9
:1017D000621B730BCECFFC0177FD64C080859185C1
:1017E000681779070CF05EC057FD5CC08285938551
:1017F000481759070CF056C086898230B1F0833003
:1018000029F1813041F484819581841B950BAB01D2
:10181000BC01615071092130310509F108F443C060
:101820002230310509F463C0089584819581DC017B
:10183000A61BB70BBD016150710986819781DC0140
:10184000A41BB50BAD0141505109E5CF86819781AD
:10185000861B970BBA01AC0141505109DCCFCA017C
:1018600057FD0796A3E095958795AA95E1F7A48182
:10187000B5818A9F90018B9F300D9A9F300D112466
:10188000620F731F078CF0A1E02DE60FF71F477062
:10189000552721E030E001C0220F4A95EAF7808108
:1018A000822B80830895CA0157FD079633E09595F2
:1018B00087953A95E1F7A481B5818A9F90018B9F26
:1018C000300D9A9F300D1124620F731F078CF0A109
:1018D000E02DE60FF71F4770552781E090E001C02B
:1018E000880F4A95EAF7809590818923DACFCA015B
:1018F00057FD079623E0959587952A95E1F7A481F2
:10190000B5818A9F90018B9F300D9A9F300D1124D5
:10191000620F731F078CF0A1E02DE60FF71F4770D1
:10192000552721E030E001C0220F4A95EAF7808177
:101930008227B7CF08958EBD00000DB407FEFDCFFE
:101940008EB508958CBD9DBD08950895FC0163700A
:10195000668B8481958126813781613039F06330CF
:1019600029F09187808733872287089531872087E0
:101970009387828708952F923F924F925F926F9242
:101980007F928F929F92AF92BF92CF92DF92EF920F
:10199000FF920F931F93CF93DF93CDB7DEB76A9774
:1019A0000FB6F894DEBF0FBECDBF9A8F898F7A83B2
:1019B00069834A01D22E18870F833701BC2CDC01C2
:1019C00059962D913C915A972115310509F015C171
:1019D00018968D919C911997681779070CF0D7C1CB
:1019E0001A968D919C91481759070CF0D0C14C2C38
:1019F000512CB6E0CB9E600D711D11247C876B8746
:101A0000161617060CF0C3C1EA2DF0E0FA87E98735
:101A100093E0EE0FFF1F9A95E1F7F88BEF87CF0168
:101A2000840F951F181619060CF0B1C1A98DBA8D37
:101A300058968C91811104C0BFEABD1508F4D39467
:101A4000A98DBA8DED91FC9111970284F385E02D5B
:101A5000CD010995B5E0DB9EC0011124E981FA8131
:101A6000FC83EB83312C212C9C0128593F4F388F6C
:101A70002F8B4A2D50E05E8B4D8BEF89F88DE20D58
:101A8000F31D44919E828D82D12CC12C69817A8173
:101A9000620D731D7A8B698B842F90E09C8B8B8BEE
:101AA000E98DFA8DA081B18140FF82C0F1E0BF12C3
:101AB0006FC0AF126DC01C96ED91FC912F813885DF
:101AC000A4014C0D5D1D69897A89898D9A8D0995CE
:101AD000EB89FC89F595E7954E2F5FEFC51AD50A7E
:101AE0006D817E818D899E89680F791F7E836D83CC
:101AF00098E0C916D10481F6AFEF2A1A3A0AEB81B1
:101B0000FC81E40DF51DFC83EB83F5E02F16310419
:101B100009F0B3CF2F81388526153705B9F0A98D87
:101B2000BA8DED91FC91B1E0BB1257C0AB1255C01C
:101B300069817A816B5F7F4F0088F189E02D830195
:101B400028E030E0A401898D9A8D0995A98DBA8D80
:101B5000ED91FC9111970688F789E02DCD016A96E9
:101B60000FB6F894DEBF0FBECDBFDF91CF911F91AE
:101B70000F91FF90EF90DF90CF90BF90AF909F902C
:101B80008F907F906F905F904F903F902F9009942F
:101B90001E96ED91FC91EF80F88409851A859201DB
:101BA0004D815E816B817C81898D9A8D099590CF65
:101BB0002F8138852615370509F48ACF31E0B31215
:101BC00007C0A31205C01C96ED91FC91930178CF3C
:101BD0001E96ED91FC917301E0CF6B857C856419B5
:101BE00075090684F785E02D73010F851889920128
:101BF000A401898D9A8D0995A9CFF9013496949104
:101C0000329745915491D91AB7E0DB9E400D511D92
:101C10001124F901259134913C8B2B8BFA012590ED
:101C20003490FA013296749031963491398B329611
:101C300064903196449041E04C1518F04A1508F034
:101C40007FC0662D062C000C770B7C836B83842D64
:101C5000042C000C990B9E838D83A98DBA8DED9178
:101C6000FC9111970284F385E02DCD010995512C4B
:101C7000D12CC12CEA2DF0E0FA87E9872B2D30E03A
:101C80003C872B87A401440D511D47FC5A95588F62
:101C90004F8B69817A81660D711D67FC7A957E870D
:101CA0006D877989C71608F051CF2C2D30E04D8112
:101CB0005E81420F531FA985BA854A9FC0014B9F81
:101CC000900D5A9F900D1124FC01E80DF91DF88B21
:101CD000EF87852D612C4F89588D420F531F5E8BE6
:101CE0004D8B671408F050C044244394480E87700D
:101CF00041F4C1010196EB89FC89E20DF31DD490FA
:101D00001C01D7FE19C0A98DBA8DED91FC91662DED
:101D100070E0B1E0BB1219C0AB1217C02D853E8533
:101D2000620F731F0484F585E02D2F8138854D895E
:101D30005E89898D9A8D0995DD0C6394842DD1CFB0
:101D40001E821D821C821B8288CF4B815C81640FA6
:101D5000751FAB85BC856A9FC0016B9F900D7A9FF4
:101D6000900D112469817A81680F791F0684F785A7
:101D7000E02DEF80F88409851A859D014F855889EB
:101D8000898D9A8D0995D8CF570CC3948ACF6A96BE
:101D90000FB6F894DEBF0FBECDBFDF91CF911F917C
:101DA0000F91FF90EF90DF90CF90BF90AF909F90FA
:101DB0008F907F906F905F904F903F902F900895FD
:101DC0008F929F92AF92CF92EF92FF920F931F93B9
:101DD000CF93DF93EC01262F898D9A8D009709F020
:101DE00051C06A30D1F41D861C868D8948E0849FDD
:101DF000900111248E859F85820F931F9F878E8768
:101E000081E090E0DF91CF911F910F91FF90EF90D3
:101E1000CF90AF909F908F9008956D3089F3CC88CC
:101E2000AD888F898823C1F08C859D8536E0C39E5F
:101E3000800D911D1124488559854817590764F470
:101E40004E855F851D861C8638E0A39EC001112447
:101E5000840F951F9F878E87EA88FB8808891989D8
:101E60004E855F856C857D85CE010E94BB0C2C89DB
:101E70008C859D8546E0249F800D911D11249D87B2
:101E80008C87BECF6A3069F41D861C86FC013896AB
:101E9000E4912D898E859F85E29F800D911D1124EF
:101EA000ADCF6D3009F4ACCFFC013496349163179B
:101EB00008F4A6CF3296E491E61708F4A1CFFC010E
:101EC000329685909490462F431B342F47E0349FE1
:101ED000800C911C1124F401329634913196E491D6
:101EE0003323A9F1EE2399F1CC88F4013596E491DE
:101EF000AD884F89442301F10E2E000CFF0BE30F38
:101F0000F11DCE9EA001CF9E500D11246C857D85C4
:101F1000460F571F68857985641775076CF44E85E1
:101F20005F851D861C86FC013896E491AE9E400DAF
:101F3000511D11245F874E87EA88FB88088919891B
:101F40004E855F856C857D85CE010E94BB0CF401BA
:101F50003496E4912C898C859D85E29F800D911D9E
:101F600011248DCF6F927F928F929F92AF92BF92EA
:101F7000CF92DF92EF92FF920F931F93CF93DF9355
:101F8000EC016B015A0139014801E881F9810284B1
:101F9000F385E02D0995E881F9810288F389E02D28
:101FA00087019301A501B601CE010995A501480D50
:101FB000591D41505109E881F9810288F389E02DCA
:101FC0009301B601CE010995E881F9810088F18974
:101FD000E02D9401A501B601CE010995C60CD71CD0
:101FE000B60161507109E881F9810088F189E02D1D
:101FF0009401A501CE010995E881F9810688F78948
:10200000E02DCE01DF91CF911F910F91FF90EF90C6
:10201000DF90CF90BF90AF909F908F907F906F9008
:1020200009946F927F928F929F92AF92BF92CF92BC
:10203000DF92EF92FF920F931F93CF93DF935C0198
:10204000EB016A01490138018701DC01ED91FC9146
:102050006217730719F5641675062CF0962D872DF7
:102060003A01C92ED82E9601261937092F5F3F4F06
:10207000048CF58DE02DA301BE01C5010995DF910A
:10208000CF911F910F91FF90EF90DF90CF90BF9075
:10209000AF909F908F907F906F9008954615570551
:1020A00091F42617370724F0892D4B01C22FD82F22
:1020B0009E01281939092F5F3F4F068CF78DE02DBF
:1020C000A601B401DACF0284F385E02D0995D5018C
:1020D000ED91FC910488F589E02D83019401A6011E
:1020E000BE01C5010995D501ED91FC910688F789DE
:1020F000E02DC501DF91CF911F910F91FF90EF90DF
:10210000DF90CF90BF90AF909F908F907F906F9017
:102110000994EF92FF920F931F93DC011A960D9191
:102120001C911B9718962D913C911997ED91FC915C
:1021300000A0F1A1E02D7B0150E040E070E060E004
:1021400009951F910F91FF90EF9008954F925F9224
:102150006F927F928F929F92AF92BF92CF92DF92B7
:10216000EF92FF920F931F93CF93DF936C012B019C
:102170005A0139014801DC01ED91FC910284F3859B
:10218000E02D0995E201640C751CD601ED91FC91DE
:10219000C615D7055CF40088F189E02D870194010C
:1021A000A501BE01C60109952196EFCF0688F789E2
:1021B000E02DC601DF91CF911F910F91FF90EF901D
:1021C000DF90CF90BF90AF909F908F907F906F9057
:1021D0005F904F9009948F929F92AF92BF92CF924F
:1021E000DF92EF92FF920F931F93CF93DF93EC0157
:1021F0005B014A016901E881F9810284F385E02DE0
:10220000099595012C0D3D1D21503109E881F98179
:102210000488F589E02D78018401A401B501CE017F
:102220000995E881F9810688F789E02DCE01DF91D3
:10223000CF911F910F91FF90EF90DF90CF90BF90C3
:10224000AF909F908F9009948F929F92AF92BF9280
:10225000CF92DF92EF92FF920F931F93CF93DF9372
:10226000EC015B014A0169017801E881F98102848E
:10227000F385E02D0995C80CD91C86010150110980
:10228000E881F9810488F589E02D9501A401B50163
:10229000CE010995E881F9810688F789E02DCE0104
:1022A000DF91CF911F910F91FF90EF90DF90CF9032
:1022B000BF90AF909F908F900994EF92FF920F93F1
:1022C0001F93DC01ED91FC9100A0F1A1E02D099597
:1022D0001F910F91FF90EF9008950F931F93DC01D2
:1022E000ED91FC91068CF78DE02D09951F910F91D2
:1022F00008950F931F93DC01ED91FC91048CF58DF3
:10230000E02D09951F910F910895DC01ED91FC914D
:102310000084F185E02D09943F924F925F926F9275
:102320007F928F929F92AF92BF92CF92DF92EF9265
:10233000FF920F931F93CF93DF935C017B014A01C0
:102340006901390187E0680E711C93E07594679408
:102350009A95E1F72B01400E511E10E000E0312C60
:10236000D0E0C0E0CE0187709927330C892B59F457
:10237000FE0183E0F595E7958A95E1F7E00FF11FFF
:10238000E80DF91D349037FE0AC021E030E0A701C6
:10239000B5016C0F7D1F84EF92E00E94851121969C
:1023A000CC16DD06F9F68FEFE81AF80A060D171DB0
:1023B000E414F504A9F6DF91CF911F910F91FF90DE
:1023C000EF90DF90CF90BF90AF909F908F907F90D5
:1023D0006F905F904F903F9008952F923F924F9251
:1023E0005F926F927F928F929F92AF92BF92CF92A5
:1023F000DF92EF92FF920F931F93CF93DF9300D062
:1024000000D000D0CDB7DEB73C016A013E832D83FA
:10241000FC82EB825801A41AB50AB7FE03C0B1943E
:10242000A194B1088D809E80861A970A97FE03C0FA
:102430009194819491088A149B045CF0902F812FD1
:102440000D811E819D838E839C2D8D2D6B01692FA7
:10245000782F0C151D055CF09D818E817E836D8328
:10246000692F782F902F812F8601C92ED82E160123
:10247000201A310A2B012D813E81421A530A57FE40
:1024800003C0519441945108710137FE03C03FEFDE
:10249000E31AF30AF594E7948D819E8186179707D6
:1024A0005CF5A1E0B0E0BA83A983C016D1064CF177
:1024B000D301ED91FC910484F585E02D2B813C81C5
:1024C000A8016D817E818A149B041CF04D815E8180
:1024D000B801C3010995E418F508F7FE0AC02D817B
:1024E0003E8189819A81280F391F3E832D83E20C1A
:1024F000F31C0F5F1F4FD9CF2FEF3FEF3A83298394
:10250000D4CF26960FB6F894DEBF0FBECDBFDF91B5
:10251000CF911F910F91FF90EF90DF90CF90BF90E0
:10252000AF909F908F907F906F905F904F903F9073
:102530002F90089508952091DC01260F3327331F33
:1025400021323105ECF420910002FC0190E080E0A2
:10255000243069F082E00895A091DC012191AC0162
:1025600044545E4FA40FB52FB11D2C9301968617CE
:1025700098F38091DC01680F6093DC0180E008959E
:1025800081E008951092000281E08093020210928F
:10259000010261E082E10E94AA0661E083E10E94FB
:1025A000AA06E9EBF0E080818E7F808380818D7FB9
:1025B000808388E48093B80085E48093BC0008950C
:1025C000CF93DF9391E09093BB018823B9F0C09142
:1025D000B800D091BA008091BC008A7B8093BC0087
:1025E00060E082E10E94AA0660E083E10E94AA0600
:1025F0000E94C212D093BA00C093B800DF91CF916D
:102600000895E091350280913402E81730F4F0E04B
:10261000EA56FE4F808190E008958FEF9FEF089576
:1026200090913502809134022FEF3FEF981748F4D4
:10263000E92FF0E0EA56FE4F208130E09F5F909353
:102640003502C90108958091340290913502891BA9
:10265000990B0895CF92DF92EF92FF920F931F9301
:10266000CF93DF937C01CB018A0120913902222391
:1026700089F0EB016B01C40ED51ECC15DD0569F0A8
:102680006991D701ED91FC910190F081E02DC70196
:102690000995F3CF642F0E949B12C801DF91CF915F
:1026A0001F910F91FF90EF90DF90CF900895CF93FF
:1026B000DF931F92CDB7DEB76983209139022223C1
:1026C000F9F020913602203258F021E030E0FC0190
:1026D0003383228390E080E00F90DF91CF910895C3
:1026E00080913702E82FF0E0EA58FE4F99819083FD
:1026F0008F5F809337028093360281E090E0ECCFC9
:1027000061E0CE0101960E949B12F7CFCF92DF923B
:10271000EF92FF920F931F93CF93DF93D0913602E6
:1027200081E0D13208F09CC0C09138020E94480973
:102730006B017C018091000281116CC082E080936A
:10274000000281E0809302028FEF8093FF011092DC
:102750002402D0932302A6E7B1E0E3E0F2E080E0B8
:10276000D8138DC01092250280912502CC0FC82B62
:10277000C093250280910102813009F084C010923B
:1027800001020E9448096B017C018091250280931F
:10279000BB008091B7019091B801A091B901B091AF
:1027A000BA01892B8A2B8B2BA1F00E94480900913A
:1027B000B7011091B8012091B9013091BA016C199B
:1027C0007D098E099F09061717072807390708F49E
:1027D00042C08091BC0083FDD8CF85EC8093BC00C3
:1027E0000E9448096B017C0180910002823009F44B
:1027F0004CC08091FF018F3F09F469C08091FF01B7
:10280000803209F466C08091FF01803309F463C00F
:1028100084E026C08091B7019091B801A091B901E0
:10282000B091BA01892B8A2B8B2B09F483CF0E949C
:1028300048090091B7011091B8012091B901309178
:10284000BA016C197D098E099F0906171707280719
:10285000390708F06FCF8091B6010E94E01285E041
:10286000109237021092360210923902DF91CF9106
:102870001F910F91FF90EF90DF90CF9008959D9161
:1028800091938F5F6DCF85EEA9CF8091B701909125
:10289000B801A091B901B091BA01892B8A2B8B2B79
:1028A00009F4A2CF0E9448090091B7011091B80124
:1028B0002091B9013091BA016C197D098E099F09E7
:1028C000061717072807390708F08ECFC4CF80E016
:1028D000C7CF82E0C5CF83E0C3CFFF920F931F9392
:1028E000CF93DF93F82ED92FC62F809111039091AB
:1028F0001203009709F452C02091150331E0309380
:102900003902209338021092370210923602DC010D
:10291000ED91FC910190F081E02D60E009950F2D83
:102920001D2FD1E0FF24F394C150809111039091A9
:102930001203CF3F61F1D032C8F00E94861380911C
:1029400011039091120320911503F0923902209304
:1029500038021092370210923602DC01ED91FC91A0
:102960000190F081E02D60E00995D1E080911103A4
:1029700090911203F8016491DC01ED91FC910190BA
:10298000F081E02D0995DF5F0F5F1F4FCDCFDF9105
:10299000CF911F910F91FF900C948613E09121032A
:1029A000F091220390818091270380958923808371
:1029B0000F2D1D2FC15008F438C0F80184912091CB
:1029C0000F0330911003232B29F00E949B0C0F5F03
:1029D0001F4FF0CF28E030E040E8E0911D03F09178
:1029E0001E0390912503582F5423D9F05081952B25
:1029F0009083E0911F03F091200390815091260372
:102A0000952B9083E0911F03F091200350819091CA
:102A10002603909595239083469521503109E9F638
:102A2000D6CF508190959523E3CFDF91CF911F9121
:102A30000F91FF9008951F93CF93DF93EC018D8D3D
:102A40009E8D009721F1162F29A131E03093390294
:102A5000209338021092370210923602DC01ED9179
:102A6000FC910190F081E02D60E009958D8D9E8DA7
:102A7000DC01ED91FC910190F081E02D612F099531
:102A80008D8D9E8DDF91CF911F910C948613ADA5F6
:102A9000BEA59C918BA9809589238C938B8D9C8D51
:102AA000892B31F0862FDF91CF911F910C949B0CD5
:102AB00028E030E080E8A9A5BAA599A9462F4823C7
:102AC000C1F04C91942B9C93ABA5BCA59C914AA9B9
:102AD000942B9C93ABA5BCA54C919AA9909594235B
:102AE0009C9386952150310931F7DF91CF911F9149
:102AF00008954C9190959423E6CFEF92FF920F9317
:102B00001F93CF93DF938091110390911203892B30
:102B100009F493C02091290330912A0340912B039B
:102B200050912C0360E074E284EF90E00E94191E43
:102B300020513109410951095695479537952795F7
:102B40002093B80065E082E59AE00E946D146091E0
:102B5000F802615084EF92E00E941B152091FA0266
:102B60003091FB02C901079697FD079623E09595E2
:102B700087952A95E1F72091F8023091F902829F1A
:102B80008001839F100D929F100D1124C09113039B
:102B9000D091140380911103909112030C0F1D1F0B
:102BA000009709F489C02091150331E03093390270
:102BB000209338021092370210923602DC01ED9118
:102BC000FC910190F081E02D60E40995FF24F394DD
:102BD000EE24E39480911103909112030C171D07CA
:102BE00009F442C0BFE1BF15D0F40E948613809162
:102BF00011039091120320911503E0923902209362
:102C000038021092370210923602DC01ED91FC91ED
:102C10000190F081E02D60E40995FF24F394809108
:102C20001103909112036991DC01ED91FC910190E7
:102C3000F081E02D0995F394CDCF80910F03909111
:102C40001003892B31F080913203909133030E945D
:102C5000A20CE0912303F09124039081809128033A
:102C60008095892380836ECF0E9486138091110303
:102C700090911203892B09F460C020912D033091AB
:102C80002E0340912F035091300360E074E284EFF3
:102C900090E00E94191E20513109410951095695B1
:102CA0004795379527952093B800DF91CF911F91D5
:102CB0000F91FF90EF900895E0912103F09122038E
:102CC000808190912703892B80830C171D0771F257
:102CD000899120910F0330911003232B19F00E944A
:102CE0009B0CF3CF28E030E040E8E0911D03F09129
:102CF0001E0390912503582F5423D9F05081952B12
:102D00009083E0911F03F09120039081509126035E
:102D1000952B9083E0911F03F091200350819091B7
:102D20002603909595239083469521503109E9F625
:102D3000CCCF508190959523E3CFE0912303F09180
:102D40002403808190912803892B8083AECF1F9329
:102D5000CF93DF93EC01162F8D8D9E8D892BB1F1D2
:102D60002DA93EA94FA958AD60E074E284EF90E030
:102D70000E94191E20513109410951095695479564
:102D8000379527952093B80066EA111167EACE01BE
:102D90000E941B158D8D9E8D892B41F129AD3AAD79
:102DA0004BAD5CAD60E074E284EF90E00E94191ED0
:102DB0002051310941095109569547953795279575
:102DC0002093B800DF91CF911F9108958B8D9C8D3A
:102DD000892B21F08EAD9FAD0E94A20CEFA5F8A922
:102DE00090818CA9809589238083CECFEFA5F8A907
:102DF00080819CA9892B8083E5CF90E080E00895B5
:102E00002091FA023091FB02C901079697FD0796BF
:102E100023E0959587952A95E1F72091F802309166
:102E2000F902829FA001839F500D929F500D1124A3
:102E300070E060E080911303909114030C949E1F46
:102E40000E94991FFB0101900020E9F73197AF0123
:102E5000461B570BDC01ED91FC910280F381E02DC4
:102E600009940F931F93CF93DF93EC010E942217D5
:102E70008C0169E571E0CE010E942217800F911F3D
:102E8000DF91CF911F910F91089585ED8093BC0044
:102E90008091B7019091B801A091B901B091BA01A8
:102EA0000796A11DB11D23E0B695A7959795879527
:102EB0002A95D1F72091BC0024FD03C01092000296
:102EC00008954091B7015091B8016091B901709196
:102ED000BA01452B462B472B69F30097A105B10595
:102EE00041F025E32A95F1F700000197A109B10906
:102EF000E1CF8091B6010C94E0121F920F920FB6B1
:102F00000F9211242F933F934F935F936F937F936F
:102F10008F939F93AF93BF93EF93FF9380913F0263
:102F200090914002A0914102B0914202892B8A2BDC
:102F30008B2BD1F190913A02E0913B02F0913C024F
:102F400080818927808380913F0290914002A091E7
:102F50004102B0914202181619061A061B069CF48B
:102F600080913F0290914002A0914102B0914202B3
:102F70000197A109B10980933F0290934002A09369
:102F80004102B0934202FF91EF91BF91AF919F91A7
:102F90008F917F916F915F914F913F912F910F9002
:102FA0000FBE0F901F901895809102010E94E807B4
:102FB000EACF1F920F920FB60F9211242F933F93D7
:102FC0004F935F936F937F938F939F93AF93BF9331
:102FD000EF93FF938BE492E00E94F205FF91EF9153
:102FE000BF91AF919F918F917F916F915F914F9121
:102FF0003F912F910F900FBE0F901F9018951F9229
:103000000F920FB60F9211242F938F939F93EF93EC
:10301000FF93E0915B02F0915C028081E09161029C
:10302000F091620282FD1BC09081809164028F5FEB
:103030008F7320916502821741F0E0916402F0E005
:10304000E55BFD4F958F80936402FF91EF919F9117
:103050008F912F910F900FBE0F901F901895808128
:10306000F4CF1F920F920FB60F9211242F933F931C
:103070008F939F93AF93BF938091270290912802E3
:10308000A0912902B0912A023091260223E0230F59
:103090002D3758F50196A11DB11D2093260280936E
:1030A000270290932802A0932902B0932A028091CC
:1030B0002B0290912C02A0912D02B0912E0201962C
:1030C000A11DB11D80932B0290932C02A0932D0281
:1030D000B0932E02BF91AF919F918F913F912F910D
:1030E0000F900FBE0F901F90189526E8230F0296A1
:1030F000A11DB11DD2CF1F920F920FB60F921124B6
:103100002F933F934F935F936F937F938F939F93EF
:10311000AF93BF93EF93FF938091B900887F803680
:1031200009F44AC0F0F5883209F4A7C018F58031D7
:1031300009F49BC0B8F4882309F4F9C0883009F475
:1031400094C0FF91EF91BF91AF919F918F917F912B
:103150006F915F914F913F912F910F900FBE0F9004
:103160001F901895883109F488C0803251F78093F8
:10317000FF0114C0803409F49DC040F48033B9F3DA
:103180008833F9F68093FF0185ECB0C0803509F4EF
:1031900085C0883509F496C0883499F60E94451791
:1031A000D0CF883909F48CC038F5883729F050F42D
:1031B000883611F0803729F683E080930002109260
:1031C000FE0157C0883809F47BC0803919F0803877
:1031D00009F0B7CF8091FE01803208F071C0E09114
:1031E000FE0181E08E0F8093FE018091BB00F0E034
:1031F000E252FE4F80833DC0803B39F0E0F4803ADC
:1032000009F479C0883A09F09CCF84E080930002E9
:103210001092DD011092DC01E0913202F091330254
:1032200009958091DC0181110FC081E08093DC0160
:103230001092BC0109C0803C09F4A6CF883C09F477
:10324000A3CF883B09F07DCFE091DD0181E08E0FB7
:103250008093DD01F0E0E454FE4F80818093BB0059
:103260009091DD018091DC0129C08091250280933D
:10327000BB0085EC8093BC0064CF909124028091C8
:103280002302981758F5E091240281E08E0F809375
:103290002402F0E0ED5FFD4F8081E9CFE091240250
:1032A00081E08E0F809324028091BB00F0E0ED5FFF
:1032B000FD4F808390912402809123029817C8F2D9
:1032C00085E8D8CFE091240281E08E0F809324021C
:1032D0008091BB00F0E0ED5FFD4F808380910202A2
:1032E00081115CCF81E08093010284EA8093BC006D
:1032F0001092000226CF85EC8093BC001092000251
:103300008091FE01803230F4E091FE01F0E0E25263
:10331000FE4F10826091FE0170E0E0913002F0916A
:1033200031028EED91E009951092FE010ACF1092C4
:10333000FF0134CF0F931F93CF93DF93EBE4F2E0C1
:103340001382128288EE93E0A0E0B0E0848395833C
:10335000A683B7832DE031E03183208325EC30E074
:103360003587248724EC30E03787268720EC30E04F
:10337000318B208B21EC30E0338B228B22EC30E040
:10338000358B248B26EC30E0378B268B118E128EFA
:10339000138E148E08EE12E0F801138212828483D9
:1033A0009583A683B7838FE191E091838083C4E303
:1033B000D3E01B861A86198218821E8A1F8A188EED
:1033C000198E86EF97E09F838E838CE090E09D8737
:1033D0008C878AE090E09F878E8789E090E0998BC8
:1033E000888B8BE090E09B8B8A8B61E08CE00E9465
:1033F000140861E08E850E94140861E088890E94AB
:10340000140861E08A890E9414081D8A1C8A84E0DD
:1034100090E099878887E4EFF2E01382128220E837
:1034200030E03583248380E290E097838683318780
:10343000208793878287168A1586148617861686B4
:1034400081E0858B848B2FEF3FEF338B228B318B89
:10345000208B878B108E128E118E81E391E09183E9
:103460008083148E138E168F058F10A2178E8FEF08
:1034700084A385A386A387A380A780E89AE1A6E01A
:10348000B0E085AB96ABA7ABB0AF80EA96E8A1E021
:10349000B0E081AF92AFA3AFB4AF80E586AF17AE17
:1034A000DF91CF911F910F910895789484B5826038
:1034B00084BD84B5816084BD85B5826085BD85B5D8
:1034C000816085BD80916E00816080936E00109256
:1034D00081008091810082608093810080918100D1
:1034E0008160809381008091800081608093800062
:1034F0008091B10084608093B1008091B0008160C0
:103500008093B00080917A00846080937A008091EB
:103510007A00826080937A0080917A008160809343
:103520007A0080917A00806880937A001092C100BE
:1035300062E082E00E94140861E088E00E941408C2
:1035400080E293E00E94450860E971E080E090E04D
:103550000E94120A88E00E94E807E0915B02F09165
:103560005C0282E08083E0915702F0915802108261
:10357000E0915902F0915A028FEC8083109263021D
:10358000E0915F02F091600286E08083E0915D024D
:10359000F0915E02808180618083E0915D02F09114
:1035A0005E02808188608083E0915D02F0915E021E
:1035B000808180688083E0915D02F0915E0280816D
:1035C0008F7D80836CE571E08BE492E00E9431177F
:1035D00020913A0330913B03032E000C440B550B12
:1035E00060E077E883E993E00E943B1ECA01B901DD
:1035F00020E130E040E050E00E943B1E2093360383
:1036000030933703409338035093390367E671E0F2
:103610008BE492E00E9431178DEF91E00E946D09DA
:1036200060E273E080E090E00E94120A6DE671E0D3
:103630008BE492E00E94311785E09CEF0E946D09B7
:1036400060E273E080E090E00E94120A8091130330
:1036500090911403892B11F10E9400172091FA0216
:103660003091FB028091F8029091F90221323105EC
:103670000CF0ADC0B9016052710977FF02C06F5FF5
:103680007F4F759567958357910997FD019600E2E5
:1036900010E023E730E044E955E0ACC02091FA02A5
:1036A0003091FB02C901079697FD0796B3E0959507
:1036B0008795BA95E1F72091F8023091F902AC01B3
:1036C000429FC001439F900D529F900D11240E9474
:1036D000741E9093140380931303892B09F0BCCFBD
:1036E0000E94001783E290E090930103809300030F
:1036F00084E190E0909303038093020381E090E0E3
:10370000909307038093060390930503809304032B
:1037100080930803809309036CE571E084EF92E0E5
:103720000E9431170E947D1568EE73E080E090E002
:103730000E94120A0E9400170E947D156EE571E03A
:1037400080E090E00E94120A84EF91E00E94450818
:1037500068EC70E080E090E00E94120A88E00E942D
:10376000E807C0E4DAE009E51AE027E7E22E2AE0FC
:10377000F22E30E0C32E30E0D32EFE018491F8010A
:10378000A490F701B490B11021C2A0900001B090B4
:103790000101C5010E946D09AA0CBB1CB092010178
:1037A000A092000180910001909101018D3E9F4007
:1037B00024F01092010110920001C114D104E9F229
:1037C0000E94DE058823C9F20E940000D6CFB9010D
:1037D0006054710977FF02C06F5F7F4F75956795E1
:1037E0008255910997FD019600E410E022E530E052
:1037F00044E757E0959587950E948C118CE3809360
:1038000016038091110390911203892B09F4E8C0EB
:103810008091FA029091FB02809709F4DFC08DE35A
:1038200080931503109235021092340210923702E1
:10383000109236020E94C21282E795E09093330202
:103840008093320283E795E09093310280933002B7
:1038500080911C0387FD1EC061E00E94140861E096
:1038600080911C030E94AA0661E070E080E090E075
:103870000E94120A60E080911C030E94AA066AE07E
:1038800070E080E090E00E94120A61E080911C03E9
:103890000E94AA068091110390911203892B09F4CA
:1038A0005EC12091290330912A0340912B0350914E
:1038B0002C0360E074E284EF90E00E94191E205116
:1038C0003109410951095695479537952795209318
:1038D000B80064E080E995E00E946D146091FA02FE
:1038E000615084EF92E00E941B1564E08CE895E043
:1038F0000E946D148091160364E1813009F460E147
:1039000084EF92E00E941B1564E088E895E00E9435
:103910006D148FE8809331038091F8029091F90241
:103920008038910509F034C18091FA029091FB0230
:103930008034910509F03CC180911603813009F46F
:1039400025C18FEC80933103C2E16AED84EF92E0F0
:103950000E941B156C2F84EF92E00E941B1561E8FA
:1039600084EF92E00E941B156091310384EF92E096
:103970000E941B1569ED84EF92E00E941B15809157
:10398000160361EF813009F462E284EF92E00E9455
:103990001B1566E082E895E00E946D14809111038A
:1039A00090911203892B09F407C120912D033091C6
:1039B0002E0340912F035091300360E074E284EFB6
:1039C00090E00E94191E2051310941095109569574
:1039D0004795379527952093B80082CE8CE320CF6A
:1039E00061E080911A030E94140861E080911B033A
:1039F0000E94140880911A03082E000C990BFC01F8
:103A0000EB58F54FE491F0E0EE0FFF1FE559F54F4D
:103A1000259134913093220320932103FC01E95A2C
:103A2000F54FE491E093270380911B03082E000CCF
:103A3000990BFC01EB58F54FE491F0E0EE0FFF1FFE
:103A4000E559F54FA591B491B0932403A0932303B6
:103A5000FC01E95AF54FE491E09328038C91E82B9F
:103A6000EC9380910F0390911003892B09F434C0DB
:103A7000CFB7F89480912F02811127C0EFE7FAE0C9
:103A80008491E1E6FAE09491E82FF0E0EE0FFF1F59
:103A9000E858FA4FA591B491EC91E92321F461E043
:103AA0008AE00E94AA0661E08AE00E9414088CB5B0
:103AB00080618CBD8CB580648CBD61E08DE00E941E
:103AC000140861E08BE00E94140880912F028F5F40
:103AD00080932F02CFBFBCCE61E0809118030E947B
:103AE000140861E0809119030E9414088091180362
:103AF000082E000C990BFC01EB58F54FE491F0E017
:103B0000EE0FFF1FE559F54F2591349130931E03B9
:103B100020931D03FC01E95AF54FE491E09325033E
:103B200080911903082E000C990BFC01EB58F54FFE
:103B3000E491F0E0EE0FFF1FE559F54FA591B49128
:103B4000B0932003A0931F03FC01E95AF54FE491C1
:103B5000E09326038C91E095E823EC9379CE809155
:103B60000F0390911003892B31F0809132039091D3
:103B700033030E94A20CE0912303F091240390816F
:103B800080912803809589238083A3CE8FE9DACEA4
:103B90008036910569F48091FA029091FB0240977A
:103BA00039F480911603813029F08FEA8093310334
:103BB000C2E0CBCE80E1FACFE0912303F091240361
:103BC000808190912803892B80838ACD81110E9466
:103BD0008106EB2DF0E0EE0FFF1FEC5CF54FA59199
:103BE000B4918C91A82209F4D0CDDCCD81E391E091
:103BF0009093F5028093F402809113039091140343
:103C0000009711F00C94101F089597FB072E16F4DF
:103C1000009407D077FD09D00E94601E07FC05D0F4
:103C20003EF4909581959F4F0895709561957F4FD3
:103C30000895A1E21A2EAA1BBB1BFD010DC0AA1FED
:103C4000BB1FEE1FFF1FA217B307E407F50720F005
:103C5000A21BB30BE40BF50B661F771F881F991F80
:103C60001A9469F760957095809590959B01AC01C9
:103C7000BD01CF010895052E97FB1EF400940E940C
:103C8000521E57FD07D00E94191E07FC03D04EF4A8
:103C90000C94521E50954095309521953F4F4F4FB3
:103CA0005F4F089590958095709561957F4F8F4FE8
:103CB0009F4F0895EE0FFF1F0590F491E02D09949A
:103CC000AA1BBB1B51E107C0AA1FBB1FA617B70742
:103CD00010F0A61BB70B881F991F5A95A9F780955E
:103CE0009095BC01CD0108950F931F93CF93DF935F
:103CF0008230910510F482E090E0E0915003F09161
:103D0000510330E020E0B0E0A0E0309799F42115B5
:103D1000310509F44AC0281B390B24303105D8F588
:103D20008A819B816115710589F1FB0193838283EF
:103D3000FE0111C04081518102811381481759074A
:103D4000E0F04817590799F4109761F012960C9318
:103D5000129713961C933296CF01DF91CF911F914A
:103D60000F9108950093500310935103F4CF211540
:103D7000310551F04217530738F0A901DB019A01D0
:103D8000BD01DF01F801C1CFEF01F9CF90935103DD
:103D900080935003CDCFFE01E20FF31F81939193E7
:103DA0002250310939832883D7CF20914E03309197
:103DB0004F03232B41F420910501309106013093EC
:103DC0004F0320934E0320910301309104012115EC
:103DD000310541F42DB73EB74091070150910801DC
:103DE000241B350BE0914E03F0914F03E217F307CC
:103DF000A0F42E1B3F0B2817390778F0AC014E5F5B
:103E00005F4F2417350748F04E0F5F1F50934F0345
:103E100040934E03819391939FCFF0E0E0E09CCFDD
:103E2000CF93DF930097E9F0FC013297138212825F
:103E3000A0915003B0915103ED0130E020E01097C4
:103E4000A1F420813181820F931F20914E03309184
:103E50004F032817390709F061C0F0934F03E0932F
:103E60004E03DF91CF910895EA01CE17DF07E8F501
:103E70004A815B819E0141155105B1F7E901FB8340
:103E8000EA8349915991C40FD51FEC17FD0761F4DE
:103E9000808191810296840F951FE901998388831F
:103EA000828193819B838A83F0E0E0E012968D917A
:103EB0009C9113970097B9F52D913C911197CD01E5
:103EC0000296820F931F20914E0330914F032817C3
:103ED000390739F6309751F510925103109250037B
:103EE000B0934F03A0934E03BCCFD383C2834081D2
:103EF0005181840F951FC817D90761F44E5F5F4F3A
:103F000088819981480F591F518340838A819B8101
:103F1000938382832115310509F0B0CFF0935103CB
:103F2000E09350039ECFFD01DC01C0CF13821282CB
:103F3000D7CF81E090E0F8940C94A51FDC0101C07C
:103F40006D9341505040E0F7089515E0C6E4D5E088
:103F500004C0FE010E945A1E2196C734D107C9F73A
:043F6000F894FFCF03
:103F6400FD01FF00005203800000000000140674ED
:103F740005A1056106D205B005C40500000000577F
:103F8400132A13FD167105231310130113000000E7
:103F940000E00E7405FD169A12EB0B710585115D98
:103FA4001179116D11ED117105A60CA7165B0BA407
:103FB4000BA61089101110B20F0D0A0048656C6C25
:103FC4006F204D4454210043572039300043435758
:063FD4002031383000002E
:00000001FF
