:100000000C945E000C9486000C9486000C94860080
:100010000C9486000C9486000C9486000C944C0280
:100020000C9486000C9486000C9486000C94860038
:100030000C9486000C9486000C9486000C94860028
:100040000C9400030C9486000C94CE020C94A8022D
:100050000C9486000C9486000C9486000C94860008
:100060000C9486000C948600000000080002010039
:100070000003040700000000000000000200000070
:1000800000250028002B0000000000240027002A83
:100090000004040404040404040202020202020331
:1000A000030303030301020408102040800102043B
:1000B00008102001020408102000E50411241FBECE
:1000C000CFEFD8E0DEBFCDBF11E0A0E0B1E0E4E3C8
:1000D000FAE002C005900D92A232B107D9F721E0F3
:1000E000A2E2B1E001C01D92A93DB207E1F710E024
:1000F000CEE5D0E004C02197FE010E941205CD3567
:10010000D107C9F70E944A030C9418050C9400000B
:10011000EDEAF0E02491E9E9F0E08491882399F098
:1001200090E0880F991FFC01E957FF4FA591B4910A
:10013000FC01E358FF4F859194918FB7F894EC91AF
:10014000E22BEC938FBF08959091000189130DC0AD
:10015000ECE7F0E0E4919FEF90930001E13009F4C7
:1001600031C068F1E23009F433C090E0FC01E85995
:10017000FF4F2491FC01EB55FF4F3491FC01EF56EA
:10018000FF4FE491EE23D1F0222351F0233009F404
:100190003AC078F5213009F43CC0223009F43DC062
:1001A000F0E0EE0FFF1FE358FF4FA591B4918FB71A
:1001B000F894EC9130953E233C938FBF08951092B4
:1001C0006E00D3CF90916F009D7F90936F00CDCF45
:1001D000909170009D7F9093700091E09093B0009B
:1001E0009091B100987F94609093B1001092B30009
:1001F000BCCF2730A9F02830C9F0243089F680918F
:1002000080008F7D03C0809180008F778093800075
:10021000C7CF84B58F7784BDC3CF84B58F7DFBCF27
:100220008091B0008F778093B000BACF8091B000FA
:100230008F7DF9CFAF92BF92CF92DF92EF92FF9274
:100240000F931F93CF93DF936C017B018B01040FFE
:10025000151FEB015E01AE18BF08C017D10759F09A
:100260006991D601ED91FC910190F081E02DC601DC
:100270000995892B79F7C501DF91CF911F910F91D6
:10028000FF90EF90DF90CF90BF90AF900895FC016A
:10029000538D448D252F30E0842F90E0821B930BEB
:1002A000541710F0CF96089501970895FC01918D91
:1002B000828D981761F0A28DAE0FBF2FB11D5D9694
:1002C0008C91928D9F5F9F73928F90E008958FEF36
:1002D0009FEF0895FC01918D828D981731F0828DEA
:1002E000E80FF11D858D90E008958FEF9FEF089541
:1002F000FC01918D228D892F90E0805C9F4F821BA5
:1003000091098F73992708958CE391E00E947801F9
:1003100021E0892B09F420E0822F089580E090E00D
:10032000892B29F00E94840181110C94000008950A
:10033000FC01A48DA80FB92FB11DA35ABF4F2C915A
:10034000848D90E001968F739927848FA689B78951
:100350002C93A089B1898C91837080648C93938D48
:10036000848D981306C00288F389E02D80818F7DEB
:1003700080830895EF92FF920F931F93CF93DF93A3
:10038000EC0181E0888F9B8D8C8D98131AC0E889D1
:10039000F989808185FF15C09FB7F894EE89FF89A0
:1003A0006083E889F98980818370806480839FBF3E
:1003B00081E090E0DF91CF911F910F91FF90EF903E
:1003C0000895F62E0B8D10E00F5F1F4F0F7311274E
:1003D000E02E8C8D8E110CC00FB607FCFACFE88989
:1003E000F989808185FFF5CFCE010E949801F1CF78
:1003F000EB8DEC0FFD2FF11DE35AFF4FF0829FB7FD
:10040000F8940B8FEA89FB8980818062CFCFCF93EC
:10041000DF93EC01888D8823B9F0AA89BB89E8892C
:10042000F9898C9185FD03C0808186FD0DC00FB6D2
:1004300007FCF7CF8C9185FFF2CF808185FFEDCF50
:10044000CE010E949801E9CFDF91CF9108953FB787
:10045000F8948091270190912801A0912901B091F1
:100460002A0126B5A89B05C02F3F19F00196A11DB2
:10047000B11D3FBFBA2FA92F982F8827BC01CD01EE
:10048000620F711D811D911D42E0660F771F881F4D
:10049000991F4A95D1F708951F920F920FB60F92A8
:1004A00011242F933F934F935F936F937F938F9379
:1004B0009F93AF93BF93EF93FF93809130019091FF
:1004C0003101A0913201B0913301892B8A2B8B2B02
:1004D000D1F190912B01E0912C01F0912D018081BF
:1004E000892780838091300190913101A091320160
:1004F000B0913301181619061A061B069CF4809158
:10050000300190913101A0913201B09133010197F6
:10051000A109B1098093300190933101A093320178
:10052000B0933301FF91EF91BF91AF919F918F9164
:100530007F916F915F914F913F912F910F900FBEDF
:100540000F901F901895809100010E94A400EACF9F
:100550001F920F920FB60F9211242F933F934F9338
:100560005F936F937F938F939F93AF93BF93EF931B
:10057000FF938CE391E00E949801FF91EF91BF916E
:10058000AF919F918F917F916F915F914F913F912B
:100590002F910F900FBE0F901F9018951F920F92E2
:1005A0000FB60F9211242F938F939F93EF93FF9386
:1005B000E0914C01F0914D018081E0915201F09168
:1005C000530182FD1BC09081809155018F5F8F7315
:1005D00020915601821741F0E0915501F0E0E45C72
:1005E000FE4F958F80935501FF91EF919F918F91D1
:1005F0002F910F900FBE0F901F9018958081F4CF10
:100600001F920F920FB60F9211242F933F938F9347
:100610009F93AF93BF938091230190912401A09168
:100620002501B09126013091220123E0230F2D37BF
:1006300058F50196A11DB11D20932201809323013D
:1006400090932401A0932501B09326018091270166
:1006500090912801A0912901B0912A010196A11D34
:10066000B11D8093270190932801A0932901B09395
:100670002A01BF91AF919F918F913F912F910F9040
:100680000FBE0F901F90189526E8230F0296A11D0C
:10069000B11DD2CF789484B5826084BD84B5816069
:1006A00084BD85B5826085BD85B5816085BD80913D
:1006B0006E00816080936E001092810080918100B5
:1006C00082608093810080918100816080938100AD
:1006D000809180008160809380008091B10084606F
:1006E0008093B1008091B00081608093B0008091D0
:1006F0007A00846080937A0080917A00826080938F
:100700007A0080917A00816080937A0080917A00EB
:10071000806880937A001092C1000E9488008091C6
:100720000001883009F47BC08F3F09F4A0C00E940B
:1007300027024B015C0180E9C82EDD24D394E12C13
:10074000F12C0E942702681979098A099B09683EE1
:10075000734081059105A8F321E0C21AD108E10890
:10076000F10888EE880E83E0981EA11CB11CC1140C
:10077000D104E104F10429F788E00E94A400E0918B
:100780004C01F0914D0182E08083E0914801F091AD
:1007900049011082E0914A01F0914B018FEC808376
:1007A00010925401E0915001F091510186E0808354
:1007B000E0914E01F0914F01808180618083E09152
:1007C0004E01F0914F01808188608083E0914E015D
:1007D000F0914F01808180688083E0914E01F0911B
:1007E0004F0180818F7D80834AE050E063E171E0BA
:1007F0008CE391E00E941A0142E050E06EE171E06A
:100800008CE391E00E941A01C0E0D0E02097F1F360
:100810000E9484018823D1F30E940000F7CFECE707
:10082000F0E0C491C7FD83CF0E948800CC2309F477
:100830004BC0C23009F4ADC0C13009F46AC0C23047
:1008400009F4AFC0C11173CF8FE087BD8FEF9FEF69
:10085000DC018093380190933901A0933A01B09361
:100860003B0180916E00826080936E0060CF88E0D3
:1008700080930001ECE7F0E0C491CF3F09F457CF3B
:10088000C13041F140F0C23009F460C0C7FD4FCF24
:100890000E948800CECF14BC15BC84B5826084BD94
:1008A00085B5816085BDE9E9F0E0E491F0E0EE0F07
:1008B000FF1FE358FF4F85919491EDEAF0E0E4913A
:1008C000E0932F010E94880085B5887F836085BDF5
:1008D0008BE9BBCF10928000109281008091810043
:1008E0008860809381008091810081608093810085
:1008F000E9E9F0E0E491F0E0EE0FFF1FE358FF4F6D
:1009000085919491EDEAF0E0E491E0932E010E944C
:10091000880080918100887F8160809381008FE0D2
:1009200097E290938900809388008FEF9FEFDC011E
:100930008093340190933501A0933601B093370131
:1009400080916F00826080936F00F1CE1092B000B2
:100950001092B1008091B00082608093B0008091CD
:10096000B10081608093B100E9E9F0E0E491F0E04A
:10097000EE0FFF1FE358FF4F8591949190932D0147
:1009800080932C01EDEAF0E0E491E0932B010E94CA
:1009900088008091B100887F84608093B1008BE9EA
:1009A00001C08FE08093B3008FEF9FEFDC01809355
:1009B000300190933101A0933201B09333018091C3
:1009C0007000826080937000B2CEECE3F1E013829D
:1009D000128288EE93E0A0E0B0E084839583A68342
:1009E000B78385E091E09183808385EC90E09587E3
:1009F000848784EC90E09787868780EC90E0918BE9
:100A0000808B81EC90E0938B828B82EC90E0958BD5
:100A1000848B86EC90E0978B868B118E128E138ED2
:100A2000148E0895EE0FFF1F0590F491E02D0994A8
:040A3000F894FFCF68
:100A3400FF00000000BA011A0147010702780156BD
:100A4400016A0148656C6C6F204D445421000D0A05
:020A54000000A0
:00000001FF
